{
  "contractName": "Lockable",
  "abi": [
    {
      "constant": true,
      "inputs": [],
      "name": "tokenTransfer",
      "outputs": [
        {
          "name": "",
          "type": "bool"
        }
      ],
      "payable": false,
      "stateMutability": "view",
      "type": "function"
    },
    {
      "constant": true,
      "inputs": [],
      "name": "owner",
      "outputs": [
        {
          "name": "",
          "type": "address"
        }
      ],
      "payable": false,
      "stateMutability": "view",
      "type": "function"
    },
    {
      "constant": true,
      "inputs": [
        {
          "name": "",
          "type": "address"
        }
      ],
      "name": "lockaddress",
      "outputs": [
        {
          "name": "",
          "type": "bool"
        }
      ],
      "payable": false,
      "stateMutability": "view",
      "type": "function"
    },
    {
      "constant": true,
      "inputs": [],
      "name": "creationTime",
      "outputs": [
        {
          "name": "",
          "type": "uint256"
        }
      ],
      "payable": false,
      "stateMutability": "view",
      "type": "function"
    },
    {
      "constant": true,
      "inputs": [
        {
          "name": "",
          "type": "address"
        }
      ],
      "name": "unlockaddress",
      "outputs": [
        {
          "name": "",
          "type": "bool"
        }
      ],
      "payable": false,
      "stateMutability": "view",
      "type": "function"
    },
    {
      "constant": true,
      "inputs": [],
      "name": "lock",
      "outputs": [
        {
          "name": "",
          "type": "bool"
        }
      ],
      "payable": false,
      "stateMutability": "view",
      "type": "function"
    },
    {
      "inputs": [],
      "payable": false,
      "stateMutability": "nonpayable",
      "type": "constructor"
    },
    {
      "anonymous": false,
      "inputs": [
        {
          "indexed": false,
          "name": "lockaddress",
          "type": "address"
        },
        {
          "indexed": false,
          "name": "status",
          "type": "bool"
        }
      ],
      "name": "Locked",
      "type": "event"
    },
    {
      "anonymous": false,
      "inputs": [
        {
          "indexed": false,
          "name": "unlockedaddress",
          "type": "address"
        },
        {
          "indexed": false,
          "name": "status",
          "type": "bool"
        }
      ],
      "name": "Unlocked",
      "type": "event"
    },
    {
      "constant": false,
      "inputs": [
        {
          "name": "target",
          "type": "address"
        },
        {
          "name": "status",
          "type": "bool"
        }
      ],
      "name": "lockAddress",
      "outputs": [],
      "payable": false,
      "stateMutability": "nonpayable",
      "type": "function"
    },
    {
      "constant": false,
      "inputs": [
        {
          "name": "target",
          "type": "address"
        },
        {
          "name": "status",
          "type": "bool"
        }
      ],
      "name": "unlockAddress",
      "outputs": [],
      "payable": false,
      "stateMutability": "nonpayable",
      "type": "function"
    }
  ],
  "bytecode": "0x6060604052341561000f57600080fd5b4260008190555060006001806101000a81548160ff02191690831515021790555033600160026101000a81548173ffffffffffffffffffffffffffffffffffffffff021916908373ffffffffffffffffffffffffffffffffffffffff1602179055506105fb806100806000396000f30060606040526004361061008e576000357c0100000000000000000000000000000000000000000000000000000000900463ffffffff16806360805e5a146100935780636c4eca27146100d75780638da5cb5b14610104578063cb7bba3914610159578063d8270dce146101aa578063ec4a79cf146101d3578063f226003114610224578063f83d08ba14610268575b600080fd5b341561009e57600080fd5b6100d5600480803573ffffffffffffffffffffffffffffffffffffffff169060200190919080351515906020019091905050610295565b005b34156100e257600080fd5b6100ea6103bb565b604051808215151515815260200191505060405180910390f35b341561010f57600080fd5b6101176103cd565b604051808273ffffffffffffffffffffffffffffffffffffffff1673ffffffffffffffffffffffffffffffffffffffff16815260200191505060405180910390f35b341561016457600080fd5b610190600480803573ffffffffffffffffffffffffffffffffffffffff169060200190919050506103f3565b604051808215151515815260200191505060405180910390f35b34156101b557600080fd5b6101bd610413565b6040518082815260200191505060405180910390f35b34156101de57600080fd5b61020a600480803573ffffffffffffffffffffffffffffffffffffffff16906020019091905050610419565b604051808215151515815260200191505060405180910390f35b341561022f57600080fd5b610266600480803573ffffffffffffffffffffffffffffffffffffffff169060200190919080351515906020019091905050610439565b005b341561027357600080fd5b61027b6105bc565b604051808215151515815260200191505060405180910390f35b3373ffffffffffffffffffffffffffffffffffffffff16600160029054906101000a900473ffffffffffffffffffffffffffffffffffffffff1673ffffffffffffffffffffffffffffffffffffffff161415156102f157600080fd5b80600260008473ffffffffffffffffffffffffffffffffffffffff1673ffffffffffffffffffffffffffffffffffffffff16815260200190815260200160002060006101000a81548160ff0219169083151502179055507f5c42a6eb70f030b267ab6ddbc362cfe8dbe7cc3b42c590692fa695c58aeaca2b8282604051808373ffffffffffffffffffffffffffffffffffffffff1673ffffffffffffffffffffffffffffffffffffffff168152602001821515151581526020019250505060405180910390a15050565b6001809054906101000a900460ff1681565b600160029054906101000a900473ffffffffffffffffffffffffffffffffffffffff1681565b60036020528060005260406000206000915054906101000a900460ff1681565b60005481565b60026020528060005260406000206000915054906101000a900460ff1681565b3373ffffffffffffffffffffffffffffffffffffffff16600160029054906101000a900473ffffffffffffffffffffffffffffffffffffffff1673ffffffffffffffffffffffffffffffffffffffff1614151561049557600080fd5b8173ffffffffffffffffffffffffffffffffffffffff16600160029054906101000a900473ffffffffffffffffffffffffffffffffffffffff1673ffffffffffffffffffffffffffffffffffffffff16141515156104f257600080fd5b80600360008473ffffffffffffffffffffffffffffffffffffffff1673ffffffffffffffffffffffffffffffffffffffff16815260200190815260200160002060006101000a81548160ff0219169083151502179055507fcaf46096bdd957e9271a7e46a00ff61870b80644805049e7ea814162a2b606bc8282604051808373ffffffffffffffffffffffffffffffffffffffff1673ffffffffffffffffffffffffffffffffffffffff168152602001821515151581526020019250505060405180910390a15050565b600160009054906101000a900460ff16815600a165627a7a72305820b624373cf06234b0bb068b7f3f8c8eacb4807b316bda98c5752052356727643b0029",
  "source": "pragma solidity ^0.4.11;\n/**\n    LOCKABLE TOKEN\n    @author DongOk Peter Ryu - <odin@yggdrash.io>\n*/\ncontract Lockable {\n    uint public creationTime;\n    bool public lock;\n    bool public tokenTransfer;\n    address public owner;\n    mapping( address => bool ) public unlockaddress;\n    // lockaddress List\n    mapping( address => bool ) public lockaddress;\n\n    // LOCK EVENT\n    event Locked(address lockaddress,bool status);\n    // UNLOCK EVENT\n    event Unlocked(address unlockedaddress, bool status);\n\n\n    // if Token transfer\n    modifier isTokenTransfer {\n        // if token transfer is not allow\n        if(!tokenTransfer) {\n            require(unlockaddress[msg.sender]);\n        }\n        _;\n    }\n\n    // This modifier check whether the contract should be in a locked\n    // or unlocked state, then acts and updates accordingly if\n    // necessary\n    modifier checkLock {\n        assert(!lockaddress[msg.sender]);\n        _;\n    }\n\n    modifier isOwner\n    {\n        require(owner == msg.sender);\n        _;\n    }\n\n    function Lockable()\n    public\n    {\n        creationTime = now;\n        tokenTransfer = false;\n        owner = msg.sender;\n    }\n\n    // Lock Address\n    function lockAddress(address target, bool status)\n    external\n    isOwner\n    {\n        require(owner != target);\n        lockaddress[target] = status;\n        Locked(target, status);\n    }\n\n    // UnLock Address\n    function unlockAddress(address target, bool status)\n    external\n    isOwner\n    {\n        unlockaddress[target] = status;\n        Unlocked(target, status);\n    }\n}",
  "sourcePath": "/Users/pop/Documents/Project/yggdrash/crowdsale/contracts/token/Lockable.sol",
  "compiler": {
    "name": "solc",
    "version": "0.4.19+commit.c4cbbb05.Emscripten.clang"
  },
  "schemaVersion": "2.0.0",
  "updatedAt": "2018-06-18T03:24:25.005Z"
}