{
  "contractName": "YeedToken",
  "abi": [
    {
      "constant": true,
      "inputs": [],
      "name": "name",
      "outputs": [
        {
          "name": "",
          "type": "string"
        }
      ],
      "payable": false,
      "stateMutability": "view",
      "type": "function"
    },
    {
      "constant": true,
      "inputs": [],
      "name": "decimals",
      "outputs": [
        {
          "name": "",
          "type": "uint8"
        }
      ],
      "payable": false,
      "stateMutability": "view",
      "type": "function"
    },
    {
      "constant": false,
      "inputs": [
        {
          "name": "target",
          "type": "address"
        },
        {
          "name": "status",
          "type": "bool"
        }
      ],
      "name": "unlockAddress",
      "outputs": [],
      "payable": false,
      "stateMutability": "nonpayable",
      "type": "function"
    },
    {
      "constant": true,
      "inputs": [],
      "name": "tokenTransfer",
      "outputs": [
        {
          "name": "",
          "type": "bool"
        }
      ],
      "payable": false,
      "stateMutability": "view",
      "type": "function"
    },
    {
      "constant": true,
      "inputs": [],
      "name": "owner",
      "outputs": [
        {
          "name": "",
          "type": "address"
        }
      ],
      "payable": false,
      "stateMutability": "view",
      "type": "function"
    },
    {
      "constant": true,
      "inputs": [],
      "name": "symbol",
      "outputs": [
        {
          "name": "",
          "type": "string"
        }
      ],
      "payable": false,
      "stateMutability": "view",
      "type": "function"
    },
    {
      "constant": true,
      "inputs": [
        {
          "name": "",
          "type": "address"
        }
      ],
      "name": "lockaddress",
      "outputs": [
        {
          "name": "",
          "type": "bool"
        }
      ],
      "payable": false,
      "stateMutability": "view",
      "type": "function"
    },
    {
      "constant": true,
      "inputs": [],
      "name": "creationTime",
      "outputs": [
        {
          "name": "",
          "type": "uint256"
        }
      ],
      "payable": false,
      "stateMutability": "view",
      "type": "function"
    },
    {
      "constant": true,
      "inputs": [
        {
          "name": "",
          "type": "address"
        }
      ],
      "name": "unlockaddress",
      "outputs": [
        {
          "name": "",
          "type": "bool"
        }
      ],
      "payable": false,
      "stateMutability": "view",
      "type": "function"
    },
    {
      "constant": false,
      "inputs": [
        {
          "name": "target",
          "type": "address"
        },
        {
          "name": "status",
          "type": "bool"
        }
      ],
      "name": "lockAddress",
      "outputs": [],
      "payable": false,
      "stateMutability": "nonpayable",
      "type": "function"
    },
    {
      "constant": true,
      "inputs": [],
      "name": "lock",
      "outputs": [
        {
          "name": "",
          "type": "bool"
        }
      ],
      "payable": false,
      "stateMutability": "view",
      "type": "function"
    },
    {
      "inputs": [
        {
          "name": "initial_balance",
          "type": "uint256"
        }
      ],
      "payable": false,
      "stateMutability": "nonpayable",
      "type": "constructor"
    },
    {
      "payable": true,
      "stateMutability": "payable",
      "type": "fallback"
    },
    {
      "anonymous": false,
      "inputs": [
        {
          "indexed": false,
          "name": "burnAddress",
          "type": "address"
        },
        {
          "indexed": false,
          "name": "amountOfTokens",
          "type": "uint256"
        }
      ],
      "name": "TokenBurned",
      "type": "event"
    },
    {
      "anonymous": false,
      "inputs": [],
      "name": "TokenTransfer",
      "type": "event"
    },
    {
      "anonymous": false,
      "inputs": [
        {
          "indexed": false,
          "name": "emergency",
          "type": "bool"
        }
      ],
      "name": "Emergency",
      "type": "event"
    },
    {
      "anonymous": false,
      "inputs": [
        {
          "indexed": false,
          "name": "lockaddress",
          "type": "address"
        },
        {
          "indexed": false,
          "name": "status",
          "type": "bool"
        }
      ],
      "name": "Locked",
      "type": "event"
    },
    {
      "anonymous": false,
      "inputs": [
        {
          "indexed": false,
          "name": "unlockedaddress",
          "type": "address"
        },
        {
          "indexed": false,
          "name": "status",
          "type": "bool"
        }
      ],
      "name": "Unlocked",
      "type": "event"
    },
    {
      "anonymous": false,
      "inputs": [
        {
          "indexed": true,
          "name": "from",
          "type": "address"
        },
        {
          "indexed": true,
          "name": "to",
          "type": "address"
        },
        {
          "indexed": false,
          "name": "value",
          "type": "uint256"
        }
      ],
      "name": "Transfer",
      "type": "event"
    },
    {
      "anonymous": false,
      "inputs": [
        {
          "indexed": true,
          "name": "owner",
          "type": "address"
        },
        {
          "indexed": true,
          "name": "spender",
          "type": "address"
        },
        {
          "indexed": false,
          "name": "value",
          "type": "uint256"
        }
      ],
      "name": "Approval",
      "type": "event"
    },
    {
      "constant": true,
      "inputs": [],
      "name": "totalSupply",
      "outputs": [
        {
          "name": "supply",
          "type": "uint256"
        }
      ],
      "payable": false,
      "stateMutability": "view",
      "type": "function"
    },
    {
      "constant": true,
      "inputs": [
        {
          "name": "who",
          "type": "address"
        }
      ],
      "name": "balanceOf",
      "outputs": [
        {
          "name": "value",
          "type": "uint256"
        }
      ],
      "payable": false,
      "stateMutability": "view",
      "type": "function"
    },
    {
      "constant": true,
      "inputs": [
        {
          "name": "owner",
          "type": "address"
        },
        {
          "name": "spender",
          "type": "address"
        }
      ],
      "name": "allowance",
      "outputs": [
        {
          "name": "_allowance",
          "type": "uint256"
        }
      ],
      "payable": false,
      "stateMutability": "view",
      "type": "function"
    },
    {
      "constant": false,
      "inputs": [
        {
          "name": "to",
          "type": "address"
        },
        {
          "name": "value",
          "type": "uint256"
        }
      ],
      "name": "transfer",
      "outputs": [
        {
          "name": "success",
          "type": "bool"
        }
      ],
      "payable": false,
      "stateMutability": "nonpayable",
      "type": "function"
    },
    {
      "constant": false,
      "inputs": [
        {
          "name": "from",
          "type": "address"
        },
        {
          "name": "to",
          "type": "address"
        },
        {
          "name": "value",
          "type": "uint256"
        }
      ],
      "name": "transferFrom",
      "outputs": [
        {
          "name": "success",
          "type": "bool"
        }
      ],
      "payable": false,
      "stateMutability": "nonpayable",
      "type": "function"
    },
    {
      "constant": false,
      "inputs": [
        {
          "name": "spender",
          "type": "address"
        },
        {
          "name": "value",
          "type": "uint256"
        }
      ],
      "name": "approve",
      "outputs": [
        {
          "name": "success",
          "type": "bool"
        }
      ],
      "payable": false,
      "stateMutability": "nonpayable",
      "type": "function"
    },
    {
      "constant": false,
      "inputs": [
        {
          "name": "tokensAmount",
          "type": "uint256"
        }
      ],
      "name": "burnTokens",
      "outputs": [],
      "payable": false,
      "stateMutability": "nonpayable",
      "type": "function"
    },
    {
      "constant": false,
      "inputs": [],
      "name": "enableTokenTransfer",
      "outputs": [],
      "payable": false,
      "stateMutability": "nonpayable",
      "type": "function"
    },
    {
      "constant": false,
      "inputs": [],
      "name": "disableTokenTransfer",
      "outputs": [],
      "payable": false,
      "stateMutability": "nonpayable",
      "type": "function"
    },
    {
      "constant": false,
      "inputs": [
        {
          "name": "flag",
          "type": "bool"
        }
      ],
      "name": "emergency",
      "outputs": [],
      "payable": false,
      "stateMutability": "nonpayable",
      "type": "function"
    },
    {
      "constant": true,
      "inputs": [],
      "name": "emergency",
      "outputs": [
        {
          "name": "",
          "type": "bool"
        }
      ],
      "payable": false,
      "stateMutability": "view",
      "type": "function"
    },
    {
      "constant": false,
      "inputs": [
        {
          "name": "emergencyAddress",
          "type": "address"
        }
      ],
      "name": "emergencyTransfer",
      "outputs": [
        {
          "name": "success",
          "type": "bool"
        }
      ],
      "payable": false,
      "stateMutability": "nonpayable",
      "type": "function"
    }
  ],
  "bytecode": "0x6060604052341561000f57600080fd5b604051602080611bb0833981016040528080519060200190919050504260008190555060006001806101000a81548160ff02191690831515021790555033600160026101000a81548173ffffffffffffffffffffffffffffffffffffffff021916908373ffffffffffffffffffffffffffffffffffffffff1602179055506000811415151561009d57600080fd5b80600560003373ffffffffffffffffffffffffffffffffffffffff1673ffffffffffffffffffffffffffffffffffffffff168152602001908152602001600020819055508060078190555050611ab8806100f86000396000f300606060405260043610610133576000357c0100000000000000000000000000000000000000000000000000000000900463ffffffff16806306fdde0314610138578063095ea7b3146101c65780630e5018341461022057806318160ddd1461027157806323b872dd1461029a578063313ce567146103135780633a76446214610342578063533981191461035757806360805e5a1461037c5780636c4eca27146103c05780636d1b229d146103ed57806370a08231146104105780638da5cb5b1461045d57806395d89b41146104b2578063a9059cbb14610540578063caa6fea41461059a578063cb7bba39146105c7578063d8270dce14610618578063dd62ed3e14610641578063e2a9ca4c146106ad578063ec4a79cf146106c2578063f226003114610713578063f83d08ba14610757575b600080fd5b341561014357600080fd5b61014b610784565b6040518080602001828103825283818151815260200191508051906020019080838360005b8381101561018b578082015181840152602081019050610170565b50505050905090810190601f1680156101b85780820380516001836020036101000a031916815260200191505b509250505060405180910390f35b34156101d157600080fd5b610206600480803573ffffffffffffffffffffffffffffffffffffffff169060200190919080359060200190919050506107bd565b604051808215151515815260200191505060405180910390f35b341561022b57600080fd5b610257600480803573ffffffffffffffffffffffffffffffffffffffff16906020019091905050610905565b604051808215151515815260200191505060405180910390f35b341561027c57600080fd5b610284610b93565b6040518082815260200191505060405180910390f35b34156102a557600080fd5b6102f9600480803573ffffffffffffffffffffffffffffffffffffffff1690602001909190803573ffffffffffffffffffffffffffffffffffffffff16906020019091908035906020019091905050610b9d565b604051808215151515815260200191505060405180910390f35b341561031e57600080fd5b610326610fe5565b604051808260ff1660ff16815260200191505060405180910390f35b341561034d57600080fd5b610355610fea565b005b341561036257600080fd5b61037a6004808035151590602001909190505061108e565b005b341561038757600080fd5b6103be600480803573ffffffffffffffffffffffffffffffffffffffff169060200190919080351515906020019091905050611142565b005b34156103cb57600080fd5b6103d3611268565b604051808215151515815260200191505060405180910390f35b34156103f857600080fd5b61040e600480803590602001909190505061127a565b005b341561041b57600080fd5b610447600480803573ffffffffffffffffffffffffffffffffffffffff169060200190919050506113e6565b6040518082815260200191505060405180910390f35b341561046857600080fd5b61047061142f565b604051808273ffffffffffffffffffffffffffffffffffffffff1673ffffffffffffffffffffffffffffffffffffffff16815260200191505060405180910390f35b34156104bd57600080fd5b6104c5611455565b6040518080602001828103825283818151815260200191508051906020019080838360005b838110156105055780820151818401526020810190506104ea565b50505050905090810190601f1680156105325780820380516001836020036101000a031916815260200191505b509250505060405180910390f35b341561054b57600080fd5b610580600480803573ffffffffffffffffffffffffffffffffffffffff1690602001909190803590602001909190505061148e565b604051808215151515815260200191505060405180910390f35b34156105a557600080fd5b6105ad61173b565b604051808215151515815260200191505060405180910390f35b34156105d257600080fd5b6105fe600480803573ffffffffffffffffffffffffffffffffffffffff1690602001909190505061174e565b604051808215151515815260200191505060405180910390f35b341561062357600080fd5b61062b61176e565b6040518082815260200191505060405180910390f35b341561064c57600080fd5b610697600480803573ffffffffffffffffffffffffffffffffffffffff1690602001909190803573ffffffffffffffffffffffffffffffffffffffff16906020019091905050611774565b6040518082815260200191505060405180910390f35b34156106b857600080fd5b6106c06117fb565b005b34156106cd57600080fd5b6106f9600480803573ffffffffffffffffffffffffffffffffffffffff1690602001909190505061189f565b604051808215151515815260200191505060405180910390f35b341561071e57600080fd5b610755600480803573ffffffffffffffffffffffffffffffffffffffff1690602001909190803515159060200190919050506118bf565b005b341561076257600080fd5b61076a611a42565b604051808215151515815260200191505060405180910390f35b6040805190810160405280600881526020017f594747445241534800000000000000000000000000000000000000000000000081525081565b6000600360003373ffffffffffffffffffffffffffffffffffffffff1673ffffffffffffffffffffffffffffffffffffffff16815260200190815260200160002060009054906101000a900460ff1615151561081557fe5b81600660003373ffffffffffffffffffffffffffffffffffffffff1673ffffffffffffffffffffffffffffffffffffffff16815260200190815260200160002060008573ffffffffffffffffffffffffffffffffffffffff1673ffffffffffffffffffffffffffffffffffffffff168152602001908152602001600020819055508273ffffffffffffffffffffffffffffffffffffffff163373ffffffffffffffffffffffffffffffffffffffff167f8c5be1e5ebec7d5bd14f71427d1e84f3dd0314c0f7b2291e5b200ac8c7c3b925846040518082815260200191505060405180910390a36001905092915050565b60003373ffffffffffffffffffffffffffffffffffffffff16600160029054906101000a900473ffffffffffffffffffffffffffffffffffffffff1673ffffffffffffffffffffffffffffffffffffffff1614151561096357600080fd5b600460009054906101000a900460ff16151561097e57600080fd5b610a31600560008473ffffffffffffffffffffffffffffffffffffffff1673ffffffffffffffffffffffffffffffffffffffff1681526020019081526020016000205460056000600160029054906101000a900473ffffffffffffffffffffffffffffffffffffffff1673ffffffffffffffffffffffffffffffffffffffff1673ffffffffffffffffffffffffffffffffffffffff16815260200190815260200160002054611a5590919063ffffffff16565b50600160029054906101000a900473ffffffffffffffffffffffffffffffffffffffff1673ffffffffffffffffffffffffffffffffffffffff168273ffffffffffffffffffffffffffffffffffffffff167fddf252ad1be2c89b69c2b068fc378daa952ba7f163c4a11628f55a4df523b3ef600560008673ffffffffffffffffffffffffffffffffffffffff1673ffffffffffffffffffffffffffffffffffffffff168152602001908152602001600020546040518082815260200191505060405180910390a3610b89600560008473ffffffffffffffffffffffffffffffffffffffff1673ffffffffffffffffffffffffffffffffffffffff16815260200190815260200160002054600560008573ffffffffffffffffffffffffffffffffffffffff1673ffffffffffffffffffffffffffffffffffffffff16815260200190815260200160002054611a7390919063ffffffff16565b5060019050919050565b6000600754905090565b60006001809054906101000a900460ff161515610c0d57600260003373ffffffffffffffffffffffffffffffffffffffff1673ffffffffffffffffffffffffffffffffffffffff16815260200190815260200160002060009054906101000a900460ff161515610c0c57600080fd5b5b600360003373ffffffffffffffffffffffffffffffffffffffff1673ffffffffffffffffffffffffffffffffffffffff16815260200190815260200160002060009054906101000a900460ff16151515610c6357fe5b81600560008673ffffffffffffffffffffffffffffffffffffffff1673ffffffffffffffffffffffffffffffffffffffff1681526020019081526020016000205410151515610cb157600080fd5b81600660008673ffffffffffffffffffffffffffffffffffffffff1673ffffffffffffffffffffffffffffffffffffffff16815260200190815260200160002060003373ffffffffffffffffffffffffffffffffffffffff1673ffffffffffffffffffffffffffffffffffffffff1681526020019081526020016000205410151515610d3c57600080fd5b610dcb82600660008773ffffffffffffffffffffffffffffffffffffffff1673ffffffffffffffffffffffffffffffffffffffff16815260200190815260200160002060003373ffffffffffffffffffffffffffffffffffffffff1673ffffffffffffffffffffffffffffffffffffffff16815260200190815260200160002054611a7390919063ffffffff16565b600660008673ffffffffffffffffffffffffffffffffffffffff1673ffffffffffffffffffffffffffffffffffffffff16815260200190815260200160002060003373ffffffffffffffffffffffffffffffffffffffff1673ffffffffffffffffffffffffffffffffffffffff16815260200190815260200160002081905550610e9d82600560008773ffffffffffffffffffffffffffffffffffffffff1673ffffffffffffffffffffffffffffffffffffffff16815260200190815260200160002054611a7390919063ffffffff16565b600560008673ffffffffffffffffffffffffffffffffffffffff1673ffffffffffffffffffffffffffffffffffffffff16815260200190815260200160002081905550610f3282600560008673ffffffffffffffffffffffffffffffffffffffff1673ffffffffffffffffffffffffffffffffffffffff16815260200190815260200160002054611a5590919063ffffffff16565b600560008573ffffffffffffffffffffffffffffffffffffffff1673ffffffffffffffffffffffffffffffffffffffff168152602001908152602001600020819055508273ffffffffffffffffffffffffffffffffffffffff168473ffffffffffffffffffffffffffffffffffffffff167fddf252ad1be2c89b69c2b068fc378daa952ba7f163c4a11628f55a4df523b3ef846040518082815260200191505060405180910390a3600190509392505050565b601281565b3373ffffffffffffffffffffffffffffffffffffffff16600160029054906101000a900473ffffffffffffffffffffffffffffffffffffffff1673ffffffffffffffffffffffffffffffffffffffff1614151561104657600080fd5b60018060016101000a81548160ff0219169083151502179055507feb2cf4fc9168a2d848de8c48d73f2b6e32ef3b25eb1e730b673209b002bca01d60405160405180910390a1565b3373ffffffffffffffffffffffffffffffffffffffff16600160029054906101000a900473ffffffffffffffffffffffffffffffffffffffff1673ffffffffffffffffffffffffffffffffffffffff161415156110ea57600080fd5b80600460006101000a81548160ff0219169083151502179055507f68c3b30f53252b4a7ebb8cbe118f644313c1c59953a3eb90ba5f43a42d242ae181604051808215151515815260200191505060405180910390a150565b3373ffffffffffffffffffffffffffffffffffffffff16600160029054906101000a900473ffffffffffffffffffffffffffffffffffffffff1673ffffffffffffffffffffffffffffffffffffffff1614151561119e57600080fd5b80600260008473ffffffffffffffffffffffffffffffffffffffff1673ffffffffffffffffffffffffffffffffffffffff16815260200190815260200160002060006101000a81548160ff0219169083151502179055507f5c42a6eb70f030b267ab6ddbc362cfe8dbe7cc3b42c590692fa695c58aeaca2b8282604051808373ffffffffffffffffffffffffffffffffffffffff1673ffffffffffffffffffffffffffffffffffffffff168152602001821515151581526020019250505060405180910390a15050565b6001809054906101000a900460ff1681565b80600560003373ffffffffffffffffffffffffffffffffffffffff1673ffffffffffffffffffffffffffffffffffffffff16815260200190815260200160002054101515156112c857600080fd5b61131a81600560003373ffffffffffffffffffffffffffffffffffffffff1673ffffffffffffffffffffffffffffffffffffffff16815260200190815260200160002054611a7390919063ffffffff16565b600560003373ffffffffffffffffffffffffffffffffffffffff1673ffffffffffffffffffffffffffffffffffffffff1681526020019081526020016000208190555061137281600754611a7390919063ffffffff16565b6007819055507f1af5163f80e79b5e554f61e1d052084d3a3fe1166e42a265798c4e2ddce8ffa23382604051808373ffffffffffffffffffffffffffffffffffffffff1673ffffffffffffffffffffffffffffffffffffffff1681526020018281526020019250505060405180910390a150565b6000600560008373ffffffffffffffffffffffffffffffffffffffff1673ffffffffffffffffffffffffffffffffffffffff168152602001908152602001600020549050919050565b600160029054906101000a900473ffffffffffffffffffffffffffffffffffffffff1681565b6040805190810160405280600481526020017f594545440000000000000000000000000000000000000000000000000000000081525081565b60006001809054906101000a900460ff1615156114fe57600260003373ffffffffffffffffffffffffffffffffffffffff1673ffffffffffffffffffffffffffffffffffffffff16815260200190815260200160002060009054906101000a900460ff1615156114fd57600080fd5b5b600360003373ffffffffffffffffffffffffffffffffffffffff1673ffffffffffffffffffffffffffffffffffffffff16815260200190815260200160002060009054906101000a900460ff1615151561155457fe5b81600560003373ffffffffffffffffffffffffffffffffffffffff1673ffffffffffffffffffffffffffffffffffffffff16815260200190815260200160002054101515156115a257600080fd5b6115f482600560003373ffffffffffffffffffffffffffffffffffffffff1673ffffffffffffffffffffffffffffffffffffffff16815260200190815260200160002054611a7390919063ffffffff16565b600560003373ffffffffffffffffffffffffffffffffffffffff1673ffffffffffffffffffffffffffffffffffffffff1681526020019081526020016000208190555061168982600560008673ffffffffffffffffffffffffffffffffffffffff1673ffffffffffffffffffffffffffffffffffffffff16815260200190815260200160002054611a5590919063ffffffff16565b600560008573ffffffffffffffffffffffffffffffffffffffff1673ffffffffffffffffffffffffffffffffffffffff168152602001908152602001600020819055508273ffffffffffffffffffffffffffffffffffffffff163373ffffffffffffffffffffffffffffffffffffffff167fddf252ad1be2c89b69c2b068fc378daa952ba7f163c4a11628f55a4df523b3ef846040518082815260200191505060405180910390a36001905092915050565b600460009054906101000a900460ff1681565b60036020528060005260406000206000915054906101000a900460ff1681565b60005481565b6000600660008473ffffffffffffffffffffffffffffffffffffffff1673ffffffffffffffffffffffffffffffffffffffff16815260200190815260200160002060008373ffffffffffffffffffffffffffffffffffffffff1673ffffffffffffffffffffffffffffffffffffffff16815260200190815260200160002054905092915050565b3373ffffffffffffffffffffffffffffffffffffffff16600160029054906101000a900473ffffffffffffffffffffffffffffffffffffffff1673ffffffffffffffffffffffffffffffffffffffff1614151561185757600080fd5b60006001806101000a81548160ff0219169083151502179055507feb2cf4fc9168a2d848de8c48d73f2b6e32ef3b25eb1e730b673209b002bca01d60405160405180910390a1565b60026020528060005260406000206000915054906101000a900460ff1681565b3373ffffffffffffffffffffffffffffffffffffffff16600160029054906101000a900473ffffffffffffffffffffffffffffffffffffffff1673ffffffffffffffffffffffffffffffffffffffff1614151561191b57600080fd5b8173ffffffffffffffffffffffffffffffffffffffff16600160029054906101000a900473ffffffffffffffffffffffffffffffffffffffff1673ffffffffffffffffffffffffffffffffffffffff161415151561197857600080fd5b80600360008473ffffffffffffffffffffffffffffffffffffffff1673ffffffffffffffffffffffffffffffffffffffff16815260200190815260200160002060006101000a81548160ff0219169083151502179055507fcaf46096bdd957e9271a7e46a00ff61870b80644805049e7ea814162a2b606bc8282604051808373ffffffffffffffffffffffffffffffffffffffff1673ffffffffffffffffffffffffffffffffffffffff168152602001821515151581526020019250505060405180910390a15050565b600160009054906101000a900460ff1681565b6000808284019050838110151515611a6957fe5b8091505092915050565b6000828211151515611a8157fe5b8183039050929150505600a165627a7a723058203b41aa509f3f73094250e0640a2db40f00831d25765bf440d26d9c1604e1da990029",
  "source": "pragma solidity ^0.4.11;\nimport \"./Erc20.sol\";\nimport \"./Lockable.sol\";\nimport '../util/SafeMath.sol';\n\n/**\n    YGGDRASH Token\n    @author DongOk Peter Ryu - <odin@yggdrash.io>\n*/\ncontract YeedToken is ERC20, Lockable {\n\n    // ADD INFORMATION\n    string public constant name = \"YGGDRASH\";\n    string public constant symbol = \"YEED\";\n    uint8 public constant decimals = 18;  // 18 is the most common number of decimal places\n    bool public emergency;\n\n    using SafeMath for uint;\n\n    mapping( address => uint ) _balances;\n    mapping( address => mapping( address => uint ) ) _approvals;\n    uint _supply;\n\n    event TokenBurned(address burnAddress, uint amountOfTokens);\n    event TokenTransfer();\n    event Emergency(bool emergency);\n\n    // Is Emergency situation\n    modifier isEmergency {\n        require(emergency);\n        _;\n    }\n\n    function YeedToken( uint initial_balance)\n    public\n    {\n        require(initial_balance != 0);\n        _balances[msg.sender] = initial_balance;\n        _supply = initial_balance;\n    }\n\n    function totalSupply()\n    public\n    constant\n    returns (uint supply) {\n        return _supply;\n    }\n\n    function balanceOf( address who )\n    public\n    constant\n    returns (uint value) {\n        return _balances[who];\n    }\n\n    function allowance(address owner, address spender)\n    public\n    constant\n    returns (uint _allowance) {\n        return _approvals[owner][spender];\n    }\n\n    function transfer( address to, uint value)\n    public\n    isTokenTransfer\n    checkLock\n    returns (bool success) {\n\n        require( _balances[msg.sender] >= value );\n\n        _balances[msg.sender] = _balances[msg.sender].sub(value);\n        _balances[to] = _balances[to].add(value);\n        Transfer( msg.sender, to, value );\n        return true;\n    }\n\n    function transferFrom( address from, address to, uint value)\n    public\n    isTokenTransfer\n    checkLock\n    returns (bool success) {\n        // if you don't have enough balance, throw\n        require( _balances[from] >= value );\n        // if you don't have approval, throw\n        require( _approvals[from][msg.sender] >= value );\n        // transfer and return true\n        _approvals[from][msg.sender] = _approvals[from][msg.sender].sub(value);\n        _balances[from] = _balances[from].sub(value);\n        _balances[to] = _balances[to].add(value);\n        Transfer( from, to, value );\n        return true;\n    }\n\n    function approve(address spender, uint value)\n    public\n    checkLock\n    returns (bool success) {\n        _approvals[msg.sender][spender] = value;\n        Approval( msg.sender, spender, value );\n        return true;\n    }\n\n    // burnToken burn tokensAmount for sender balance\n    // Token Burn by self\n    function burnTokens(uint tokensAmount)\n    public\n    {\n        require( _balances[msg.sender] >= tokensAmount );\n\n        _balances[msg.sender] = _balances[msg.sender].sub(tokensAmount);\n        _supply = _supply.sub(tokensAmount);\n        TokenBurned(msg.sender, tokensAmount);\n\n    }\n\n    // All Token unfreezing\n    function enableTokenTransfer()\n    external\n    isOwner\n    {\n        tokenTransfer = true;\n        TokenTransfer();\n    }\n\n    // All Token freezing\n    function disableTokenTransfer()\n    external\n    isOwner\n    {\n        tokenTransfer = false;\n        TokenTransfer();\n    }\n\n    // Set Emergency situation Flag\n    function emergency(bool flag)\n    public\n    isOwner\n    {\n        emergency = flag;\n        Emergency(flag);\n    }\n\n    // In emergency situation,  all of emergencyAddress Token move to Owner address\n    function emergencyTransfer(address emergencyAddress)\n    public\n    isOwner\n    isEmergency\n    returns (bool success) {\n        _balances[owner].add(_balances[emergencyAddress]);\n        // make Transfer event\n        Transfer( emergencyAddress, owner, _balances[emergencyAddress] );\n        _balances[emergencyAddress].sub(_balances[emergencyAddress]);\n        return true;\n    }\n\n\n    /* This unnamed function is called whenever someone tries to send ether to it */\n    function () public payable {\n        revert();\n    }\n\n}",
  "sourcePath": "/Users/pop/Documents/Project/yggdrash/crowdsale/contracts/token/YeedToken.sol",
  "compiler": {
    "name": "solc",
    "version": "0.4.19+commit.c4cbbb05.Emscripten.clang"
  },
  "schemaVersion": "2.0.0",
  "updatedAt": "2018-06-18T08:19:05.811Z"
}