{
  "contractName": "YeedToken",
  "abi": [
    {
      "constant": true,
      "inputs": [],
      "name": "name",
      "outputs": [
        {
          "name": "",
          "type": "string"
        }
      ],
      "payable": false,
      "stateMutability": "view",
      "type": "function"
    },
    {
      "constant": true,
      "inputs": [],
      "name": "decimals",
      "outputs": [
        {
          "name": "",
          "type": "uint8"
        }
      ],
      "payable": false,
      "stateMutability": "view",
      "type": "function"
    },
    {
      "constant": false,
      "inputs": [
        {
          "name": "target",
          "type": "address"
        },
        {
          "name": "status",
          "type": "bool"
        }
      ],
      "name": "unlockAddress",
      "outputs": [],
      "payable": false,
      "stateMutability": "nonpayable",
      "type": "function"
    },
    {
      "constant": true,
      "inputs": [],
      "name": "tokenTransfer",
      "outputs": [
        {
          "name": "",
          "type": "bool"
        }
      ],
      "payable": false,
      "stateMutability": "view",
      "type": "function"
    },
    {
      "constant": true,
      "inputs": [],
      "name": "owner",
      "outputs": [
        {
          "name": "",
          "type": "address"
        }
      ],
      "payable": false,
      "stateMutability": "view",
      "type": "function"
    },
    {
      "constant": true,
      "inputs": [],
      "name": "symbol",
      "outputs": [
        {
          "name": "",
          "type": "string"
        }
      ],
      "payable": false,
      "stateMutability": "view",
      "type": "function"
    },
    {
      "constant": true,
      "inputs": [
        {
          "name": "",
          "type": "address"
        }
      ],
      "name": "lockaddress",
      "outputs": [
        {
          "name": "",
          "type": "bool"
        }
      ],
      "payable": false,
      "stateMutability": "view",
      "type": "function"
    },
    {
      "constant": true,
      "inputs": [],
      "name": "creationTime",
      "outputs": [
        {
          "name": "",
          "type": "uint256"
        }
      ],
      "payable": false,
      "stateMutability": "view",
      "type": "function"
    },
    {
      "constant": true,
      "inputs": [
        {
          "name": "",
          "type": "address"
        }
      ],
      "name": "unlockaddress",
      "outputs": [
        {
          "name": "",
          "type": "bool"
        }
      ],
      "payable": false,
      "stateMutability": "view",
      "type": "function"
    },
    {
      "constant": false,
      "inputs": [
        {
          "name": "target",
          "type": "address"
        },
        {
          "name": "status",
          "type": "bool"
        }
      ],
      "name": "lockAddress",
      "outputs": [],
      "payable": false,
      "stateMutability": "nonpayable",
      "type": "function"
    },
    {
      "constant": true,
      "inputs": [],
      "name": "lock",
      "outputs": [
        {
          "name": "",
          "type": "bool"
        }
      ],
      "payable": false,
      "stateMutability": "view",
      "type": "function"
    },
    {
      "inputs": [
        {
          "name": "initial_balance",
          "type": "uint256"
        },
        {
          "name": "wallet",
          "type": "address"
        }
      ],
      "payable": false,
      "stateMutability": "nonpayable",
      "type": "constructor"
    },
    {
      "payable": true,
      "stateMutability": "payable",
      "type": "fallback"
    },
    {
      "anonymous": false,
      "inputs": [
        {
          "indexed": false,
          "name": "burnAddress",
          "type": "address"
        },
        {
          "indexed": false,
          "name": "amountOfTokens",
          "type": "uint256"
        }
      ],
      "name": "TokenBurned",
      "type": "event"
    },
    {
      "anonymous": false,
      "inputs": [],
      "name": "TokenTransfer",
      "type": "event"
    },
    {
      "anonymous": false,
      "inputs": [
        {
          "indexed": false,
          "name": "lockaddress",
          "type": "address"
        },
        {
          "indexed": false,
          "name": "status",
          "type": "bool"
        }
      ],
      "name": "Locked",
      "type": "event"
    },
    {
      "anonymous": false,
      "inputs": [
        {
          "indexed": false,
          "name": "unlockedaddress",
          "type": "address"
        },
        {
          "indexed": false,
          "name": "status",
          "type": "bool"
        }
      ],
      "name": "Unlocked",
      "type": "event"
    },
    {
      "anonymous": false,
      "inputs": [
        {
          "indexed": true,
          "name": "from",
          "type": "address"
        },
        {
          "indexed": true,
          "name": "to",
          "type": "address"
        },
        {
          "indexed": false,
          "name": "value",
          "type": "uint256"
        }
      ],
      "name": "Transfer",
      "type": "event"
    },
    {
      "anonymous": false,
      "inputs": [
        {
          "indexed": true,
          "name": "owner",
          "type": "address"
        },
        {
          "indexed": true,
          "name": "spender",
          "type": "address"
        },
        {
          "indexed": false,
          "name": "value",
          "type": "uint256"
        }
      ],
      "name": "Approval",
      "type": "event"
    },
    {
      "constant": true,
      "inputs": [],
      "name": "totalSupply",
      "outputs": [
        {
          "name": "supply",
          "type": "uint256"
        }
      ],
      "payable": false,
      "stateMutability": "view",
      "type": "function"
    },
    {
      "constant": true,
      "inputs": [
        {
          "name": "who",
          "type": "address"
        }
      ],
      "name": "balanceOf",
      "outputs": [
        {
          "name": "value",
          "type": "uint256"
        }
      ],
      "payable": false,
      "stateMutability": "view",
      "type": "function"
    },
    {
      "constant": true,
      "inputs": [
        {
          "name": "owner",
          "type": "address"
        },
        {
          "name": "spender",
          "type": "address"
        }
      ],
      "name": "allowance",
      "outputs": [
        {
          "name": "_allowance",
          "type": "uint256"
        }
      ],
      "payable": false,
      "stateMutability": "view",
      "type": "function"
    },
    {
      "constant": false,
      "inputs": [
        {
          "name": "to",
          "type": "address"
        },
        {
          "name": "value",
          "type": "uint256"
        }
      ],
      "name": "transfer",
      "outputs": [
        {
          "name": "success",
          "type": "bool"
        }
      ],
      "payable": false,
      "stateMutability": "nonpayable",
      "type": "function"
    },
    {
      "constant": false,
      "inputs": [
        {
          "name": "from",
          "type": "address"
        },
        {
          "name": "to",
          "type": "address"
        },
        {
          "name": "value",
          "type": "uint256"
        }
      ],
      "name": "transferFrom",
      "outputs": [
        {
          "name": "success",
          "type": "bool"
        }
      ],
      "payable": false,
      "stateMutability": "nonpayable",
      "type": "function"
    },
    {
      "constant": false,
      "inputs": [
        {
          "name": "spender",
          "type": "address"
        },
        {
          "name": "value",
          "type": "uint256"
        }
      ],
      "name": "approve",
      "outputs": [
        {
          "name": "success",
          "type": "bool"
        }
      ],
      "payable": false,
      "stateMutability": "nonpayable",
      "type": "function"
    },
    {
      "constant": false,
      "inputs": [
        {
          "name": "tokensAmount",
          "type": "uint256"
        }
      ],
      "name": "burnTokens",
      "outputs": [],
      "payable": false,
      "stateMutability": "nonpayable",
      "type": "function"
    },
    {
      "constant": false,
      "inputs": [],
      "name": "enableTokenTransfer",
      "outputs": [],
      "payable": false,
      "stateMutability": "nonpayable",
      "type": "function"
    },
    {
      "constant": false,
      "inputs": [],
      "name": "disableTokenTransfer",
      "outputs": [],
      "payable": false,
      "stateMutability": "nonpayable",
      "type": "function"
    }
  ],
  "bytecode": "0x6060604052341561000f57600080fd5b6040516040806117c7833981016040528080519060200190919080519060200190919050504260008190555060006001806101000a81548160ff02191690831515021790555033600160026101000a81548173ffffffffffffffffffffffffffffffffffffffff021916908373ffffffffffffffffffffffffffffffffffffffff16021790555060008173ffffffffffffffffffffffffffffffffffffffff16141515156100bc57600080fd5b600082141515156100cc57600080fd5b81600460003373ffffffffffffffffffffffffffffffffffffffff1673ffffffffffffffffffffffffffffffffffffffff1681526020019081526020016000208190555081600681905550505061169f806101286000396000f300606060405260043610610112576000357c0100000000000000000000000000000000000000000000000000000000900463ffffffff16806306fdde0314610117578063095ea7b3146101a557806318160ddd146101ff57806323b872dd14610228578063313ce567146102a15780633a764462146102d057806360805e5a146102e55780636c4eca27146103295780636d1b229d1461035657806370a08231146103795780638da5cb5b146103c657806395d89b411461041b578063a9059cbb146104a9578063cb7bba3914610503578063d8270dce14610554578063dd62ed3e1461057d578063e2a9ca4c146105e9578063ec4a79cf146105fe578063f22600311461064f578063f83d08ba14610693575b600080fd5b341561012257600080fd5b61012a6106c0565b6040518080602001828103825283818151815260200191508051906020019080838360005b8381101561016a57808201518184015260208101905061014f565b50505050905090810190601f1680156101975780820380516001836020036101000a031916815260200191505b509250505060405180910390f35b34156101b057600080fd5b6101e5600480803573ffffffffffffffffffffffffffffffffffffffff169060200190919080359060200190919050506106f9565b604051808215151515815260200191505060405180910390f35b341561020a57600080fd5b610212610841565b6040518082815260200191505060405180910390f35b341561023357600080fd5b610287600480803573ffffffffffffffffffffffffffffffffffffffff1690602001909190803573ffffffffffffffffffffffffffffffffffffffff1690602001909190803590602001909190505061084b565b604051808215151515815260200191505060405180910390f35b34156102ac57600080fd5b6102b4610c93565b604051808260ff1660ff16815260200191505060405180910390f35b34156102db57600080fd5b6102e3610c98565b005b34156102f057600080fd5b610327600480803573ffffffffffffffffffffffffffffffffffffffff169060200190919080351515906020019091905050610d3c565b005b341561033457600080fd5b61033c610e62565b604051808215151515815260200191505060405180910390f35b341561036157600080fd5b6103776004808035906020019091905050610e74565b005b341561038457600080fd5b6103b0600480803573ffffffffffffffffffffffffffffffffffffffff16906020019091905050610fe0565b6040518082815260200191505060405180910390f35b34156103d157600080fd5b6103d9611029565b604051808273ffffffffffffffffffffffffffffffffffffffff1673ffffffffffffffffffffffffffffffffffffffff16815260200191505060405180910390f35b341561042657600080fd5b61042e61104f565b6040518080602001828103825283818151815260200191508051906020019080838360005b8381101561046e578082015181840152602081019050610453565b50505050905090810190601f16801561049b5780820380516001836020036101000a031916815260200191505b509250505060405180910390f35b34156104b457600080fd5b6104e9600480803573ffffffffffffffffffffffffffffffffffffffff16906020019091908035906020019091905050611088565b604051808215151515815260200191505060405180910390f35b341561050e57600080fd5b61053a600480803573ffffffffffffffffffffffffffffffffffffffff16906020019091905050611335565b604051808215151515815260200191505060405180910390f35b341561055f57600080fd5b610567611355565b6040518082815260200191505060405180910390f35b341561058857600080fd5b6105d3600480803573ffffffffffffffffffffffffffffffffffffffff1690602001909190803573ffffffffffffffffffffffffffffffffffffffff1690602001909190505061135b565b6040518082815260200191505060405180910390f35b34156105f457600080fd5b6105fc6113e2565b005b341561060957600080fd5b610635600480803573ffffffffffffffffffffffffffffffffffffffff16906020019091905050611486565b604051808215151515815260200191505060405180910390f35b341561065a57600080fd5b610691600480803573ffffffffffffffffffffffffffffffffffffffff1690602001909190803515159060200190919050506114a6565b005b341561069e57600080fd5b6106a6611629565b604051808215151515815260200191505060405180910390f35b6040805190810160405280600881526020017f594747445241534800000000000000000000000000000000000000000000000081525081565b6000600360003373ffffffffffffffffffffffffffffffffffffffff1673ffffffffffffffffffffffffffffffffffffffff16815260200190815260200160002060009054906101000a900460ff1615151561075157fe5b81600560003373ffffffffffffffffffffffffffffffffffffffff1673ffffffffffffffffffffffffffffffffffffffff16815260200190815260200160002060008573ffffffffffffffffffffffffffffffffffffffff1673ffffffffffffffffffffffffffffffffffffffff168152602001908152602001600020819055508273ffffffffffffffffffffffffffffffffffffffff163373ffffffffffffffffffffffffffffffffffffffff167f8c5be1e5ebec7d5bd14f71427d1e84f3dd0314c0f7b2291e5b200ac8c7c3b925846040518082815260200191505060405180910390a36001905092915050565b6000600654905090565b60006001809054906101000a900460ff1615156108bb57600260003373ffffffffffffffffffffffffffffffffffffffff1673ffffffffffffffffffffffffffffffffffffffff16815260200190815260200160002060009054906101000a900460ff1615156108ba57600080fd5b5b600360003373ffffffffffffffffffffffffffffffffffffffff1673ffffffffffffffffffffffffffffffffffffffff16815260200190815260200160002060009054906101000a900460ff1615151561091157fe5b81600460008673ffffffffffffffffffffffffffffffffffffffff1673ffffffffffffffffffffffffffffffffffffffff168152602001908152602001600020541015151561095f57600080fd5b81600560008673ffffffffffffffffffffffffffffffffffffffff1673ffffffffffffffffffffffffffffffffffffffff16815260200190815260200160002060003373ffffffffffffffffffffffffffffffffffffffff1673ffffffffffffffffffffffffffffffffffffffff16815260200190815260200160002054101515156109ea57600080fd5b610a7982600560008773ffffffffffffffffffffffffffffffffffffffff1673ffffffffffffffffffffffffffffffffffffffff16815260200190815260200160002060003373ffffffffffffffffffffffffffffffffffffffff1673ffffffffffffffffffffffffffffffffffffffff1681526020019081526020016000205461163c90919063ffffffff16565b600560008673ffffffffffffffffffffffffffffffffffffffff1673ffffffffffffffffffffffffffffffffffffffff16815260200190815260200160002060003373ffffffffffffffffffffffffffffffffffffffff1673ffffffffffffffffffffffffffffffffffffffff16815260200190815260200160002081905550610b4b82600460008773ffffffffffffffffffffffffffffffffffffffff1673ffffffffffffffffffffffffffffffffffffffff1681526020019081526020016000205461163c90919063ffffffff16565b600460008673ffffffffffffffffffffffffffffffffffffffff1673ffffffffffffffffffffffffffffffffffffffff16815260200190815260200160002081905550610be082600460008673ffffffffffffffffffffffffffffffffffffffff1673ffffffffffffffffffffffffffffffffffffffff1681526020019081526020016000205461165590919063ffffffff16565b600460008573ffffffffffffffffffffffffffffffffffffffff1673ffffffffffffffffffffffffffffffffffffffff168152602001908152602001600020819055508273ffffffffffffffffffffffffffffffffffffffff168473ffffffffffffffffffffffffffffffffffffffff167fddf252ad1be2c89b69c2b068fc378daa952ba7f163c4a11628f55a4df523b3ef846040518082815260200191505060405180910390a3600190509392505050565b601281565b3373ffffffffffffffffffffffffffffffffffffffff16600160029054906101000a900473ffffffffffffffffffffffffffffffffffffffff1673ffffffffffffffffffffffffffffffffffffffff16141515610cf457600080fd5b60018060016101000a81548160ff0219169083151502179055507feb2cf4fc9168a2d848de8c48d73f2b6e32ef3b25eb1e730b673209b002bca01d60405160405180910390a1565b3373ffffffffffffffffffffffffffffffffffffffff16600160029054906101000a900473ffffffffffffffffffffffffffffffffffffffff1673ffffffffffffffffffffffffffffffffffffffff16141515610d9857600080fd5b80600260008473ffffffffffffffffffffffffffffffffffffffff1673ffffffffffffffffffffffffffffffffffffffff16815260200190815260200160002060006101000a81548160ff0219169083151502179055507f5c42a6eb70f030b267ab6ddbc362cfe8dbe7cc3b42c590692fa695c58aeaca2b8282604051808373ffffffffffffffffffffffffffffffffffffffff1673ffffffffffffffffffffffffffffffffffffffff168152602001821515151581526020019250505060405180910390a15050565b6001809054906101000a900460ff1681565b80600460003373ffffffffffffffffffffffffffffffffffffffff1673ffffffffffffffffffffffffffffffffffffffff1681526020019081526020016000205410151515610ec257600080fd5b610f1481600460003373ffffffffffffffffffffffffffffffffffffffff1673ffffffffffffffffffffffffffffffffffffffff1681526020019081526020016000205461163c90919063ffffffff16565b600460003373ffffffffffffffffffffffffffffffffffffffff1673ffffffffffffffffffffffffffffffffffffffff16815260200190815260200160002081905550610f6c8160065461163c90919063ffffffff16565b6006819055507f1af5163f80e79b5e554f61e1d052084d3a3fe1166e42a265798c4e2ddce8ffa23382604051808373ffffffffffffffffffffffffffffffffffffffff1673ffffffffffffffffffffffffffffffffffffffff1681526020018281526020019250505060405180910390a150565b6000600460008373ffffffffffffffffffffffffffffffffffffffff1673ffffffffffffffffffffffffffffffffffffffff168152602001908152602001600020549050919050565b600160029054906101000a900473ffffffffffffffffffffffffffffffffffffffff1681565b6040805190810160405280600481526020017f594545440000000000000000000000000000000000000000000000000000000081525081565b60006001809054906101000a900460ff1615156110f857600260003373ffffffffffffffffffffffffffffffffffffffff1673ffffffffffffffffffffffffffffffffffffffff16815260200190815260200160002060009054906101000a900460ff1615156110f757600080fd5b5b600360003373ffffffffffffffffffffffffffffffffffffffff1673ffffffffffffffffffffffffffffffffffffffff16815260200190815260200160002060009054906101000a900460ff1615151561114e57fe5b81600460003373ffffffffffffffffffffffffffffffffffffffff1673ffffffffffffffffffffffffffffffffffffffff168152602001908152602001600020541015151561119c57600080fd5b6111ee82600460003373ffffffffffffffffffffffffffffffffffffffff1673ffffffffffffffffffffffffffffffffffffffff1681526020019081526020016000205461163c90919063ffffffff16565b600460003373ffffffffffffffffffffffffffffffffffffffff1673ffffffffffffffffffffffffffffffffffffffff1681526020019081526020016000208190555061128382600460008673ffffffffffffffffffffffffffffffffffffffff1673ffffffffffffffffffffffffffffffffffffffff1681526020019081526020016000205461165590919063ffffffff16565b600460008573ffffffffffffffffffffffffffffffffffffffff1673ffffffffffffffffffffffffffffffffffffffff168152602001908152602001600020819055508273ffffffffffffffffffffffffffffffffffffffff163373ffffffffffffffffffffffffffffffffffffffff167fddf252ad1be2c89b69c2b068fc378daa952ba7f163c4a11628f55a4df523b3ef846040518082815260200191505060405180910390a36001905092915050565b60036020528060005260406000206000915054906101000a900460ff1681565b60005481565b6000600560008473ffffffffffffffffffffffffffffffffffffffff1673ffffffffffffffffffffffffffffffffffffffff16815260200190815260200160002060008373ffffffffffffffffffffffffffffffffffffffff1673ffffffffffffffffffffffffffffffffffffffff16815260200190815260200160002054905092915050565b3373ffffffffffffffffffffffffffffffffffffffff16600160029054906101000a900473ffffffffffffffffffffffffffffffffffffffff1673ffffffffffffffffffffffffffffffffffffffff1614151561143e57600080fd5b60006001806101000a81548160ff0219169083151502179055507feb2cf4fc9168a2d848de8c48d73f2b6e32ef3b25eb1e730b673209b002bca01d60405160405180910390a1565b60026020528060005260406000206000915054906101000a900460ff1681565b3373ffffffffffffffffffffffffffffffffffffffff16600160029054906101000a900473ffffffffffffffffffffffffffffffffffffffff1673ffffffffffffffffffffffffffffffffffffffff1614151561150257600080fd5b8173ffffffffffffffffffffffffffffffffffffffff16600160029054906101000a900473ffffffffffffffffffffffffffffffffffffffff1673ffffffffffffffffffffffffffffffffffffffff161415151561155f57600080fd5b80600360008473ffffffffffffffffffffffffffffffffffffffff1673ffffffffffffffffffffffffffffffffffffffff16815260200190815260200160002060006101000a81548160ff0219169083151502179055507fcaf46096bdd957e9271a7e46a00ff61870b80644805049e7ea814162a2b606bc8282604051808373ffffffffffffffffffffffffffffffffffffffff1673ffffffffffffffffffffffffffffffffffffffff168152602001821515151581526020019250505060405180910390a15050565b600160009054906101000a900460ff1681565b600082821115151561164a57fe5b818303905092915050565b600080828401905083811015151561166957fe5b80915050929150505600a165627a7a72305820653555da369fb7b0a0c177036e19acc6aac82b6b79a27171aca4d990233aa7740029",
  "source": "pragma solidity ^0.4.11;\nimport \"./Erc20.sol\";\nimport \"./Lockable.sol\";\nimport '../util/SafeMath.sol';\n\n/**\n    YGGDRASH Token\n    @author DongOk Peter Ryu - <odin@yggdrash.io>\n*/\ncontract YeedToken is ERC20, Lockable {\n\n    // ADD INFORMATION\n    string public constant name = \"YGGDRASH\";\n    string public constant symbol = \"YEED\";\n    uint8 public constant decimals = 18;  // 18 is the most common number of decimal places\n\n    using SafeMath for uint;\n\n    mapping( address => uint ) _balances;\n    mapping( address => mapping( address => uint ) ) _approvals;\n    uint _supply;\n\n    event TokenBurned(address burnAddress, uint amountOfTokens);\n    event TokenTransfer();\n\n    function YeedToken( uint initial_balance, address wallet)\n    public\n    {\n        require(wallet != 0);\n        require(initial_balance != 0);\n        _balances[msg.sender] = initial_balance;\n        _supply = initial_balance;\n    }\n\n    function totalSupply() public constant returns (uint supply) {\n        return _supply;\n    }\n\n    function balanceOf( address who ) public constant returns (uint value) {\n        return _balances[who];\n    }\n\n    function allowance(address owner, address spender) public constant returns (uint _allowance) {\n        return _approvals[owner][spender];\n    }\n\n    function transfer( address to, uint value)\n    public\n    isTokenTransfer\n    checkLock\n    returns (bool success) {\n\n        require( _balances[msg.sender] >= value );\n\n        _balances[msg.sender] = _balances[msg.sender].sub(value);\n        _balances[to] = _balances[to].add(value);\n        Transfer( msg.sender, to, value );\n        return true;\n    }\n\n    function transferFrom( address from, address to, uint value)\n    public\n    isTokenTransfer\n    checkLock\n    returns (bool success) {\n        // if you don't have enough balance, throw\n        require( _balances[from] >= value );\n        // if you don't have approval, throw\n        require( _approvals[from][msg.sender] >= value );\n        // transfer and return true\n        _approvals[from][msg.sender] = _approvals[from][msg.sender].sub(value);\n        _balances[from] = _balances[from].sub(value);\n        _balances[to] = _balances[to].add(value);\n        Transfer( from, to, value );\n        return true;\n    }\n\n    function approve(address spender, uint value)\n    public\n    checkLock\n    returns (bool success) {\n        _approvals[msg.sender][spender] = value;\n        Approval( msg.sender, spender, value );\n        return true;\n    }\n\n    // burnToken burn tokensAmount for sender balance\n    function burnTokens(uint tokensAmount)\n    public\n    {\n        require( _balances[msg.sender] >= tokensAmount );\n\n        _balances[msg.sender] = _balances[msg.sender].sub(tokensAmount);\n        _supply = _supply.sub(tokensAmount);\n        TokenBurned(msg.sender, tokensAmount);\n\n    }\n\n\n    function enableTokenTransfer()\n    external\n    isOwner\n    {\n        tokenTransfer = true;\n        TokenTransfer();\n    }\n\n    function disableTokenTransfer()\n    external\n    isOwner\n    {\n        tokenTransfer = false;\n        TokenTransfer();\n    }\n\n    /* This unnamed function is called whenever someone tries to send ether to it */\n    function () public payable {\n        revert();\n    }\n\n}",
  "sourcePath": "/Users/pop/Documents/Project/yggdrash/crowdsale/contracts/token/YeedToken.sol",
  "compiler": {
    "name": "solc",
    "version": "0.4.19+commit.c4cbbb05.Emscripten.clang"
  },
  "schemaVersion": "2.0.0",
  "updatedAt": "2018-06-18T03:24:25.008Z"
}