{
  "contractName": "YggdrashCrowd",
  "abi": [
    {
      "constant": true,
      "inputs": [],
      "name": "totalAmount",
      "outputs": [
        {
          "name": "",
          "type": "uint256"
        }
      ],
      "payable": false,
      "stateMutability": "view",
      "type": "function"
    },
    {
      "constant": true,
      "inputs": [],
      "name": "endTime",
      "outputs": [
        {
          "name": "",
          "type": "uint256"
        }
      ],
      "payable": false,
      "stateMutability": "view",
      "type": "function"
    },
    {
      "constant": true,
      "inputs": [],
      "name": "maxGasPrice",
      "outputs": [
        {
          "name": "",
          "type": "uint256"
        }
      ],
      "payable": false,
      "stateMutability": "view",
      "type": "function"
    },
    {
      "constant": true,
      "inputs": [],
      "name": "startBlock",
      "outputs": [
        {
          "name": "",
          "type": "uint256"
        }
      ],
      "payable": false,
      "stateMutability": "view",
      "type": "function"
    },
    {
      "constant": true,
      "inputs": [],
      "name": "wallet",
      "outputs": [
        {
          "name": "",
          "type": "address"
        }
      ],
      "payable": false,
      "stateMutability": "view",
      "type": "function"
    },
    {
      "constant": true,
      "inputs": [],
      "name": "yeedToken",
      "outputs": [
        {
          "name": "",
          "type": "address"
        }
      ],
      "payable": false,
      "stateMutability": "view",
      "type": "function"
    },
    {
      "constant": true,
      "inputs": [],
      "name": "owner",
      "outputs": [
        {
          "name": "",
          "type": "address"
        }
      ],
      "payable": false,
      "stateMutability": "view",
      "type": "function"
    },
    {
      "constant": true,
      "inputs": [],
      "name": "maxValue",
      "outputs": [
        {
          "name": "",
          "type": "uint256"
        }
      ],
      "payable": false,
      "stateMutability": "view",
      "type": "function"
    },
    {
      "constant": true,
      "inputs": [],
      "name": "minValue",
      "outputs": [
        {
          "name": "",
          "type": "uint256"
        }
      ],
      "payable": false,
      "stateMutability": "view",
      "type": "function"
    },
    {
      "constant": true,
      "inputs": [],
      "name": "totalReceived",
      "outputs": [
        {
          "name": "",
          "type": "uint256"
        }
      ],
      "payable": false,
      "stateMutability": "view",
      "type": "function"
    },
    {
      "constant": true,
      "inputs": [],
      "name": "tokenOwner",
      "outputs": [
        {
          "name": "",
          "type": "address"
        }
      ],
      "payable": false,
      "stateMutability": "view",
      "type": "function"
    },
    {
      "constant": true,
      "inputs": [
        {
          "name": "",
          "type": "address"
        }
      ],
      "name": "_contributeInfo",
      "outputs": [
        {
          "name": "exists",
          "type": "bool"
        },
        {
          "name": "account",
          "type": "address"
        },
        {
          "name": "amount",
          "type": "uint256"
        },
        {
          "name": "balance",
          "type": "uint256"
        },
        {
          "name": "data",
          "type": "bytes"
        }
      ],
      "payable": false,
      "stateMutability": "view",
      "type": "function"
    },
    {
      "constant": true,
      "inputs": [],
      "name": "priceFactor",
      "outputs": [
        {
          "name": "",
          "type": "uint256"
        }
      ],
      "payable": false,
      "stateMutability": "view",
      "type": "function"
    },
    {
      "inputs": [
        {
          "name": "_token",
          "type": "address"
        },
        {
          "name": "_tokenOwner",
          "type": "address"
        },
        {
          "name": "_wallet",
          "type": "address"
        },
        {
          "name": "_amount",
          "type": "uint256"
        },
        {
          "name": "_priceFactor",
          "type": "uint256"
        },
        {
          "name": "_maxValue",
          "type": "uint256"
        },
        {
          "name": "_minValue",
          "type": "uint256"
        }
      ],
      "payable": false,
      "stateMutability": "nonpayable",
      "type": "constructor"
    },
    {
      "payable": true,
      "stateMutability": "payable",
      "type": "fallback"
    },
    {
      "anonymous": false,
      "inputs": [
        {
          "indexed": false,
          "name": "sender",
          "type": "address"
        },
        {
          "indexed": false,
          "name": "amount",
          "type": "uint256"
        }
      ],
      "name": "FundTransfer",
      "type": "event"
    },
    {
      "constant": false,
      "inputs": [
        {
          "name": "_token",
          "type": "address"
        }
      ],
      "name": "setupToken",
      "outputs": [],
      "payable": false,
      "stateMutability": "nonpayable",
      "type": "function"
    },
    {
      "constant": false,
      "inputs": [],
      "name": "startContruibute",
      "outputs": [],
      "payable": false,
      "stateMutability": "nonpayable",
      "type": "function"
    },
    {
      "constant": false,
      "inputs": [
        {
          "name": "_totalAmount",
          "type": "uint256"
        },
        {
          "name": "_priceFactor",
          "type": "uint256"
        },
        {
          "name": "_maxValue",
          "type": "uint256"
        },
        {
          "name": "_minValue",
          "type": "uint256"
        },
        {
          "name": "_maxGasPrice",
          "type": "uint256"
        }
      ],
      "name": "changeSettings",
      "outputs": [],
      "payable": false,
      "stateMutability": "nonpayable",
      "type": "function"
    },
    {
      "constant": false,
      "inputs": [
        {
          "name": "_maxGasPrice",
          "type": "uint256"
        }
      ],
      "name": "setMaxGasPrice",
      "outputs": [],
      "payable": false,
      "stateMutability": "nonpayable",
      "type": "function"
    },
    {
      "constant": true,
      "inputs": [
        {
          "name": "src",
          "type": "address"
        }
      ],
      "name": "balanceOf",
      "outputs": [
        {
          "name": "",
          "type": "uint256"
        }
      ],
      "payable": false,
      "stateMutability": "view",
      "type": "function"
    },
    {
      "constant": true,
      "inputs": [
        {
          "name": "src",
          "type": "address"
        }
      ],
      "name": "amountOf",
      "outputs": [
        {
          "name": "",
          "type": "uint256"
        }
      ],
      "payable": false,
      "stateMutability": "view",
      "type": "function"
    },
    {
      "constant": true,
      "inputs": [
        {
          "name": "src",
          "type": "bytes"
        }
      ],
      "name": "contruibuteData",
      "outputs": [
        {
          "name": "",
          "type": "address"
        }
      ],
      "payable": false,
      "stateMutability": "view",
      "type": "function"
    },
    {
      "constant": true,
      "inputs": [],
      "name": "isContruibuteOpen",
      "outputs": [
        {
          "name": "",
          "type": "bool"
        }
      ],
      "payable": false,
      "stateMutability": "view",
      "type": "function"
    },
    {
      "constant": false,
      "inputs": [],
      "name": "halt",
      "outputs": [],
      "payable": false,
      "stateMutability": "nonpayable",
      "type": "function"
    }
  ],
  "bytecode": "0x6060604052341561000f57600080fd5b60405160e08061188e8339810160405280805190602001909190805190602001909190805190602001909190805190602001909190805190602001909190805190602001909190805190602001909190505060008673ffffffffffffffffffffffffffffffffffffffff161415801561009f575060008573ffffffffffffffffffffffffffffffffffffffff1614155b80156100ac575060008414155b80156100b9575060008314155b15156100c457600080fd5b85600360006101000a81548173ffffffffffffffffffffffffffffffffffffffff021916908373ffffffffffffffffffffffffffffffffffffffff16021790555033600260006101000a81548173ffffffffffffffffffffffffffffffffffffffff021916908373ffffffffffffffffffffffffffffffffffffffff16021790555084600160006101000a81548173ffffffffffffffffffffffffffffffffffffffff021916908373ffffffffffffffffffffffffffffffffffffffff16021790555083600481905550826005819055508160098190555080600a8190555060008060146101000a81548160ff021916908360038111156101c157fe5b021790555060008773ffffffffffffffffffffffffffffffffffffffff1614151561024b57866000806101000a81548173ffffffffffffffffffffffffffffffffffffffff021916908373ffffffffffffffffffffffffffffffffffffffff1602179055506001600060146101000a81548160ff0219169083600381111561024557fe5b02179055505b6000600b8190555050505050505050611625806102696000396000f300606060405260043610610128576000357c0100000000000000000000000000000000000000000000000000000000900463ffffffff16806301608f5f1461088b5780630a08de75146108d857806316948e9b146109055780631a39d8ef1461094c5780632716baa6146109755780633197cbb61461098a5780633de39c11146109b357806348cd4cb1146109dc578063521eb27314610a055780635ed7ca5b14610a5a57806370a0823114610a6f57806382ad5ecf14610abc5780638da5cb5b14610b1157806394a5c2e414610b66578063963e63c714610b8f578063a3c2c46214610bb8578063a3e6761014610be1578063b3c4a36b14610c36578063b924d53114610c6f578063d2fa635e14610d8a578063dfb2866d14610dad578063fdcb753914610dd6575b60008060008060008060095414151561014f576001600954013410151561014e57600080fd5b5b6000600a5414151561016f576001600a54033411151561016e57600080fd5b5b3373ffffffffffffffffffffffffffffffffffffffff16600160009054906101000a900473ffffffffffffffffffffffffffffffffffffffff1673ffffffffffffffffffffffffffffffffffffffff16141515156101cc57600080fd5b600080369050141515156101df57600080fd5b60001515600d60003660405180838380828437820191505092505050908152602001604051809103902060000160009054906101000a900460ff16151514151561022857600080fd5b6000600c60003373ffffffffffffffffffffffffffffffffffffffff1673ffffffffffffffffffffffffffffffffffffffff1681526020019081526020016000206001015414151561027957600080fd5b600280600381111561028757fe5b600060149054906101000a900460ff1660038111156102a257fe5b1415156102ae57600080fd5b3495506102c8600554600454610e7390919063ffffffff16565b945084861115610328576102e58587610e8e90919063ffffffff16565b93503373ffffffffffffffffffffffffffffffffffffffff166108fc859081150290604051600060405180830381858888f19350505050151561032457fe5b8495505b6000600b54141515610345576001600b54013a10151561034457fe5b5b61035a86600754610ea790919063ffffffff16565b60078190555061037560055487610ec590919063ffffffff16565b925061038c83600454610e8e90919063ffffffff16565b6004819055506000809054906101000a900473ffffffffffffffffffffffffffffffffffffffff1673ffffffffffffffffffffffffffffffffffffffff166323b872dd600360009054906101000a900473ffffffffffffffffffffffffffffffffffffffff1633866000604051602001526040518463ffffffff167c0100000000000000000000000000000000000000000000000000000000028152600401808473ffffffffffffffffffffffffffffffffffffffff1673ffffffffffffffffffffffffffffffffffffffff1681526020018373ffffffffffffffffffffffffffffffffffffffff1673ffffffffffffffffffffffffffffffffffffffff1681526020018281526020019350505050602060405180830381600087803b15156104b457600080fd5b6102c65a03f115156104c557600080fd5b50505060405180519050507f97c35397cb6acebd9df368c206404479fc4c80dd6034d1b28943aaf5826318703384604051808373ffffffffffffffffffffffffffffffffffffffff1673ffffffffffffffffffffffffffffffffffffffff1681526020018281526020019250505060405180910390a1600c60003373ffffffffffffffffffffffffffffffffffffffff1673ffffffffffffffffffffffffffffffffffffffff168152602001908152602001600020915060018260000160006101000a81548160ff021916908315150217905550338260000160016101000a81548173ffffffffffffffffffffffffffffffffffffffff021916908373ffffffffffffffffffffffffffffffffffffffff1602179055506000368360030191906105f09291906114cd565b5085826001018190555082826002018190555081600d6000366040518083838082843782019150509250505090815260200160405180910390206000820160009054906101000a900460ff168160000160006101000a81548160ff0219169083151502179055506000820160019054906101000a900473ffffffffffffffffffffffffffffffffffffffff168160000160016101000a81548173ffffffffffffffffffffffffffffffffffffffff021916908373ffffffffffffffffffffffffffffffffffffffff1602179055506001820154816001015560028201548160020155600382018160030190805460018160011615610100020316600290046106f992919061154d565b5090505081600c60003373ffffffffffffffffffffffffffffffffffffffff1673ffffffffffffffffffffffffffffffffffffffff1681526020019081526020016000206000820160009054906101000a900460ff168160000160006101000a81548160ff0219169083151502179055506000820160019054906101000a900473ffffffffffffffffffffffffffffffffffffffff168160000160016101000a81548173ffffffffffffffffffffffffffffffffffffffff021916908373ffffffffffffffffffffffffffffffffffffffff16021790555060018201548160010155600282015481600201556003820181600301908054600181600116156101000203166002900461080c92919061154d565b50905050600160009054906101000a900473ffffffffffffffffffffffffffffffffffffffff1673ffffffffffffffffffffffffffffffffffffffff166108fc879081150290604051600060405180830381858888f19350505050151561087257600080fd5b8486141561088357610882610ef8565b5b505050505050005b341561089657600080fd5b6108c2600480803573ffffffffffffffffffffffffffffffffffffffff16906020019091905050610f2d565b6040518082815260200191505060405180910390f35b34156108e357600080fd5b6108eb610f79565b604051808215151515815260200191505060405180910390f35b341561091057600080fd5b61094a6004808035906020019091908035906020019091908035906020019091908035906020019091908035906020019091905050610fa9565b005b341561095757600080fd5b61095f61104c565b6040518082815260200191505060405180910390f35b341561098057600080fd5b610988611052565b005b341561099557600080fd5b61099d611111565b6040518082815260200191505060405180910390f35b34156109be57600080fd5b6109c6611117565b6040518082815260200191505060405180910390f35b34156109e757600080fd5b6109ef61111d565b6040518082815260200191505060405180910390f35b3415610a1057600080fd5b610a18611123565b604051808273ffffffffffffffffffffffffffffffffffffffff1673ffffffffffffffffffffffffffffffffffffffff16815260200191505060405180910390f35b3415610a6557600080fd5b610a6d611149565b005b3415610a7a57600080fd5b610aa6600480803573ffffffffffffffffffffffffffffffffffffffff169060200190919050506111af565b6040518082815260200191505060405180910390f35b3415610ac757600080fd5b610acf6111fb565b604051808273ffffffffffffffffffffffffffffffffffffffff1673ffffffffffffffffffffffffffffffffffffffff16815260200191505060405180910390f35b3415610b1c57600080fd5b610b24611220565b604051808273ffffffffffffffffffffffffffffffffffffffff1673ffffffffffffffffffffffffffffffffffffffff16815260200191505060405180910390f35b3415610b7157600080fd5b610b79611246565b6040518082815260200191505060405180910390f35b3415610b9a57600080fd5b610ba261124c565b6040518082815260200191505060405180910390f35b3415610bc357600080fd5b610bcb611252565b6040518082815260200191505060405180910390f35b3415610bec57600080fd5b610bf4611258565b604051808273ffffffffffffffffffffffffffffffffffffffff1673ffffffffffffffffffffffffffffffffffffffff16815260200191505060405180910390f35b3415610c4157600080fd5b610c6d600480803573ffffffffffffffffffffffffffffffffffffffff1690602001909190505061127e565b005b3415610c7a57600080fd5b610ca6600480803573ffffffffffffffffffffffffffffffffffffffff16906020019091905050611367565b60405180861515151581526020018573ffffffffffffffffffffffffffffffffffffffff1673ffffffffffffffffffffffffffffffffffffffff16815260200184815260200183815260200180602001828103825283818154600181600116156101000203166002900481526020019150805460018160011615610100020316600290048015610d775780601f10610d4c57610100808354040283529160200191610d77565b820191906000526020600020905b815481529060010190602001808311610d5a57829003601f168201915b5050965050505050505060405180910390f35b3415610d9557600080fd5b610dab60048080359060200190919050506113c9565b005b3415610db857600080fd5b610dc061142f565b6040518082815260200191505060405180910390f35b3415610de157600080fd5b610e31600480803590602001908201803590602001908080601f01602080910402602001604051908101604052809392919081815260200183838082843782019150505050505091905050611435565b604051808273ffffffffffffffffffffffffffffffffffffffff1673ffffffffffffffffffffffffffffffffffffffff16815260200191505060405180910390f35b6000808284811515610e8157fe5b0490508091505092915050565b6000828211151515610e9c57fe5b818303905092915050565b6000808284019050838110151515610ebb57fe5b8091505092915050565b60008082840290506000841480610ee65750828482811515610ee357fe5b04145b1515610eee57fe5b8091505092915050565b6003600060146101000a81548160ff02191690836003811115610f1757fe5b0217905550600060048190555042600881905550565b6000600c60008373ffffffffffffffffffffffffffffffffffffffff1673ffffffffffffffffffffffffffffffffffffffff168152602001908152602001600020600101549050919050565b600060026003811115610f8857fe5b600060149054906101000a900460ff166003811115610fa357fe5b14905090565b600260009054906101000a900473ffffffffffffffffffffffffffffffffffffffff1673ffffffffffffffffffffffffffffffffffffffff163373ffffffffffffffffffffffffffffffffffffffff1614151561100557600080fd5b60008514158015611017575060008414155b151561102257600080fd5b84600481905550836005819055508260098190555081600a8190555080600b819055505050505050565b60045481565b600260009054906101000a900473ffffffffffffffffffffffffffffffffffffffff1673ffffffffffffffffffffffffffffffffffffffff163373ffffffffffffffffffffffffffffffffffffffff161415156110ae57600080fd5b60018060038111156110bc57fe5b600060149054906101000a900460ff1660038111156110d757fe5b1415156110e357600080fd5b6002600060146101000a81548160ff0219169083600381111561110257fe5b02179055504360068190555050565b60085481565b600b5481565b60065481565b600160009054906101000a900473ffffffffffffffffffffffffffffffffffffffff1681565b600260009054906101000a900473ffffffffffffffffffffffffffffffffffffffff1673ffffffffffffffffffffffffffffffffffffffff163373ffffffffffffffffffffffffffffffffffffffff161415156111a557600080fd5b6111ad610ef8565b565b6000600c60008373ffffffffffffffffffffffffffffffffffffffff1673ffffffffffffffffffffffffffffffffffffffff168152602001908152602001600020600201549050919050565b6000809054906101000a900473ffffffffffffffffffffffffffffffffffffffff1681565b600260009054906101000a900473ffffffffffffffffffffffffffffffffffffffff1681565b60095481565b600a5481565b60075481565b600360009054906101000a900473ffffffffffffffffffffffffffffffffffffffff1681565b600260009054906101000a900473ffffffffffffffffffffffffffffffffffffffff1673ffffffffffffffffffffffffffffffffffffffff163373ffffffffffffffffffffffffffffffffffffffff161415156112da57600080fd5b60008173ffffffffffffffffffffffffffffffffffffffff161415151561130057600080fd5b806000806101000a81548173ffffffffffffffffffffffffffffffffffffffff021916908373ffffffffffffffffffffffffffffffffffffffff1602179055506001600060146101000a81548160ff0219169083600381111561135f57fe5b021790555050565b600c6020528060005260406000206000915090508060000160009054906101000a900460ff16908060000160019054906101000a900473ffffffffffffffffffffffffffffffffffffffff169080600101549080600201549080600301905085565b600260009054906101000a900473ffffffffffffffffffffffffffffffffffffffff1673ffffffffffffffffffffffffffffffffffffffff163373ffffffffffffffffffffffffffffffffffffffff1614151561142557600080fd5b80600b8190555050565b60055481565b6000600d826040518082805190602001908083835b60208310151561146f578051825260208201915060208101905060208303925061144a565b6001836020036101000a038019825116818451168082178552505050505050905001915050908152602001604051809103902060000160019054906101000a900473ffffffffffffffffffffffffffffffffffffffff169050919050565b828054600181600116156101000203166002900490600052602060002090601f016020900481019282601f1061150e57803560ff191683800117855561153c565b8280016001018555821561153c579182015b8281111561153b578235825591602001919060010190611520565b5b50905061154991906115d4565b5090565b828054600181600116156101000203166002900490600052602060002090601f016020900481019282601f1061158657805485556115c3565b828001600101855582156115c357600052602060002091601f016020900482015b828111156115c25782548255916001019190600101906115a7565b5b5090506115d091906115d4565b5090565b6115f691905b808211156115f25760008160009055506001016115da565b5090565b905600a165627a7a72305820e848c096c7c1fb55ed811783e7df0806882731c02e6a83f5e93d96bc984bcf840029",
  "source": "pragma solidity ^0.4.11;\nimport \"../token/Erc20.sol\";\nimport \"../util/SafeMath.sol\";\n/**\n    YGGDRASH SmartContract\n    @author Peter Ryu - <odin@yggdrash.io>\n*/\ncontract YggdrashCrowd {\n    using SafeMath for uint;\n    ERC20 public yeedToken;\n    Stages stage;\n    address public wallet;\n    address public owner;\n    address public tokenOwner;\n    uint public totalAmount;    // Contruibute Token amount\n    uint public priceFactor; // ratio\n    uint public startBlock;\n    uint public totalReceived;\n    uint public endTime;\n\n    uint public maxValue; // max ETH\n    uint public minValue;\n\n    uint public maxGasPrice; // Max gasPrice\n\n    // collect log\n    event FundTransfer (address sender, uint amount);\n\n    struct ContributeAddress {\n        bool exists; // set to true\n        address account; // sending account\n        uint amount; // sending amount\n        uint balance; // token value\n        bytes data; // sending data\n    }\n\n    mapping(address => ContributeAddress) public _contributeInfo;\n    mapping(bytes => ContributeAddress) _contruibuteData;\n\n    /*\n        Check is owner address\n    */\n    modifier isOwner() {\n        // Only owner is allowed to proceed\n        require (msg.sender == owner);\n        _;\n    }\n\n    /**\n        Check Valid Payload\n    */\n    modifier isValidPayload() {\n        // check Max\n        if(maxValue != 0){\n            require(msg.value < maxValue + 1);\n        }\n        // Check Min\n        if(minValue != 0){\n            require(msg.value > minValue - 1);\n        }\n        require(wallet != msg.sender);\n        // check data value\n        require(msg.data.length != 0);\n        _;\n\n    }\n\n    /*\n        Check exists Contribute list\n    */\n    modifier isExists() {\n        require(_contruibuteData[msg.data].exists == false);\n        require(_contributeInfo[msg.sender].amount == 0);\n        _;\n    }\n\n    /*\n     *  Modifiers Stage\n     */\n    modifier atStage(Stages _stage) {\n        require(stage == _stage);\n        _;\n    }\n\n\n    /*\n     *  Enums Stage Status\n     */\n    enum Stages {\n    Deployed,\n    SetUp,\n    Started,\n    Ended\n    }\n\n\n    /// init\n    /// @param _token token address\n    /// @param _tokenOwner token owner wallet address\n    /// @param _wallet Send ETH wallet\n    /// @param _amount token total value\n    /// @param _priceFactor token and ETH ratio\n    /// @param _maxValue maximum ETH balance\n    /// @param _minValue minimum ETH balance\n\n    function YggdrashCrowd(address _token, address _tokenOwner, address _wallet, uint _amount, uint _priceFactor, uint _maxValue, uint _minValue)\n    public\n    {\n        require (_tokenOwner != 0 && _wallet != 0 && _amount != 0 && _priceFactor != 0);\n        tokenOwner = _tokenOwner;\n        owner = msg.sender;\n        wallet = _wallet;\n        totalAmount = _amount;\n        priceFactor = _priceFactor;\n        maxValue = _maxValue;\n        minValue = _minValue;\n        stage = Stages.Deployed;\n\n        if(_token != 0){ // setup token\n            yeedToken = ERC20(_token);\n            stage = Stages.SetUp;\n        }\n        // Max Gas Price is unlimited\n        maxGasPrice = 0;\n    }\n\n    // setupToken\n    function setupToken(address _token)\n    public\n    isOwner\n    {\n        require(_token != 0);\n        yeedToken = ERC20(_token);\n        stage = Stages.SetUp;\n    }\n\n    /// @dev Start Contruibute\n    function startContruibute()\n    public\n    isOwner\n    atStage(Stages.SetUp)\n    {\n        stage = Stages.Started;\n        startBlock = block.number;\n    }\n\n\n    /**\n        Contributer send to ETH\n        Payload Check\n        Exist Check\n        GasPrice Check\n        Stage Check\n    */\n    function()\n    public\n    isValidPayload\n    isExists\n    atStage(Stages.Started)\n    payable\n    {\n        uint amount = msg.value;\n        uint maxAmount = totalAmount.div(priceFactor);\n        // refund\n        if (amount > maxAmount){\n            uint refund = amount.sub(maxAmount);\n            assert(msg.sender.send(refund));\n            amount = maxAmount;\n        }\n        //  NO MORE GAS WAR!!!\n        if(maxGasPrice != 0){\n            assert(tx.gasprice < maxGasPrice + 1);\n        }\n        totalReceived = totalReceived.add(amount);\n        // calculate token\n        uint token = amount.mul(priceFactor);\n        totalAmount = totalAmount.sub(token);\n\n        // give token to sender\n        yeedToken.transferFrom(tokenOwner, msg.sender, token);\n        FundTransfer(msg.sender, token);\n\n        // Set Contribute Account\n        ContributeAddress crowdData = _contributeInfo[msg.sender];\n        crowdData.exists = true;\n        crowdData.account = msg.sender;\n        crowdData.data = msg.data;\n        crowdData.amount = amount;\n        crowdData.balance = token;\n        // add contruibuteData\n        _contruibuteData[msg.data] = crowdData;\n        _contributeInfo[msg.sender] = crowdData;\n        // send to wallet\n        wallet.transfer(amount);\n\n        // token sold out\n        if (amount == maxAmount)\n            finalizeContruibute();\n    }\n\n    /// @dev Changes auction totalAmount and start price factor before auction is started.\n    /// @param _totalAmount Updated auction totalAmount.\n    /// @param _priceFactor Updated start price factor.\n    /// @param _maxValue Maximum balance of ETH\n    /// @param _minValue Minimum balance of ETH\n    function changeSettings(uint _totalAmount, uint _priceFactor, uint _maxValue, uint _minValue, uint _maxGasPrice)\n    public\n    isOwner\n    {\n        require(_totalAmount != 0 && _priceFactor != 0);\n        totalAmount = _totalAmount;\n        priceFactor = _priceFactor;\n        maxValue = _maxValue;\n        minValue = _minValue;\n        maxGasPrice = _maxGasPrice;\n    }\n    /**\n        Set Max Gas Price by Admin\n    */\n    function setMaxGasPrice(uint _maxGasPrice)\n    public\n    isOwner\n    {\n        maxGasPrice = _maxGasPrice;\n    }\n\n\n    // token balance\n    // @param src sender wallet address\n    function balanceOf(address src) public constant returns (uint256)\n    {\n        return _contributeInfo[src].balance;\n    }\n\n    // amount ETH value\n    // @param src sender wallet address\n    function amountOf(address src) public constant returns(uint256)\n    {\n        return _contributeInfo[src].amount;\n    }\n\n    // contruibute data\n    // @param src Yggdrash uuid\n    function contruibuteData(bytes src) public constant returns(address)\n    {\n        return _contruibuteData[src].account;\n    }\n\n    // Check contruibute is open\n    function isContruibuteOpen() public constant returns (bool)\n    {\n        return stage == Stages.Started;\n    }\n\n    // Smartcontract halt\n    function halt()\n    public\n    isOwner\n    {\n        finalizeContruibute();\n    }\n\n    // END of this Contruibute\n    function finalizeContruibute()\n    private\n    {\n        stage = Stages.Ended;\n        // remain token send to owner\n        totalAmount = 0;\n        endTime = now;\n    }\n}\n",
  "sourcePath": "/Users/pop/Documents/Project/r2v/yggdrash/Yggdrash-token/contracts/ico/YggdrashCrowd.sol",
  "compiler": {
    "name": "solc",
    "version": "0.4.19+commit.c4cbbb05.Emscripten.clang"
  },
  "schemaVersion": "2.0.0",
  "updatedAt": "2018-03-10T07:26:39.558Z"
}