{
  "contractName": "YggdrashCrowdSale",
  "abi": [
    {
      "constant": true,
      "inputs": [],
      "name": "endTime",
      "outputs": [
        {
          "name": "",
          "type": "uint256"
        }
      ],
      "payable": false,
      "stateMutability": "view",
      "type": "function"
    },
    {
      "constant": true,
      "inputs": [],
      "name": "maxGasPrice",
      "outputs": [
        {
          "name": "",
          "type": "uint256"
        }
      ],
      "payable": false,
      "stateMutability": "view",
      "type": "function"
    },
    {
      "constant": true,
      "inputs": [],
      "name": "startBlock",
      "outputs": [
        {
          "name": "",
          "type": "uint256"
        }
      ],
      "payable": false,
      "stateMutability": "view",
      "type": "function"
    },
    {
      "constant": true,
      "inputs": [],
      "name": "wallet",
      "outputs": [
        {
          "name": "",
          "type": "address"
        }
      ],
      "payable": false,
      "stateMutability": "view",
      "type": "function"
    },
    {
      "constant": true,
      "inputs": [
        {
          "name": "",
          "type": "address"
        }
      ],
      "name": "_saleValue",
      "outputs": [
        {
          "name": "exists",
          "type": "bool"
        },
        {
          "name": "account",
          "type": "address"
        },
        {
          "name": "amount",
          "type": "uint256"
        },
        {
          "name": "balance",
          "type": "uint256"
        },
        {
          "name": "data",
          "type": "bytes"
        }
      ],
      "payable": false,
      "stateMutability": "view",
      "type": "function"
    },
    {
      "constant": true,
      "inputs": [],
      "name": "yeedToken",
      "outputs": [
        {
          "name": "",
          "type": "address"
        }
      ],
      "payable": false,
      "stateMutability": "view",
      "type": "function"
    },
    {
      "constant": true,
      "inputs": [],
      "name": "saleAmount",
      "outputs": [
        {
          "name": "",
          "type": "uint256"
        }
      ],
      "payable": false,
      "stateMutability": "view",
      "type": "function"
    },
    {
      "constant": true,
      "inputs": [],
      "name": "owner",
      "outputs": [
        {
          "name": "",
          "type": "address"
        }
      ],
      "payable": false,
      "stateMutability": "view",
      "type": "function"
    },
    {
      "constant": true,
      "inputs": [],
      "name": "maxValue",
      "outputs": [
        {
          "name": "",
          "type": "uint256"
        }
      ],
      "payable": false,
      "stateMutability": "view",
      "type": "function"
    },
    {
      "constant": true,
      "inputs": [],
      "name": "minValue",
      "outputs": [
        {
          "name": "",
          "type": "uint256"
        }
      ],
      "payable": false,
      "stateMutability": "view",
      "type": "function"
    },
    {
      "constant": true,
      "inputs": [],
      "name": "totalReceived",
      "outputs": [
        {
          "name": "",
          "type": "uint256"
        }
      ],
      "payable": false,
      "stateMutability": "view",
      "type": "function"
    },
    {
      "constant": true,
      "inputs": [],
      "name": "tokenOwner",
      "outputs": [
        {
          "name": "",
          "type": "address"
        }
      ],
      "payable": false,
      "stateMutability": "view",
      "type": "function"
    },
    {
      "constant": true,
      "inputs": [],
      "name": "priceFactor",
      "outputs": [
        {
          "name": "",
          "type": "uint256"
        }
      ],
      "payable": false,
      "stateMutability": "view",
      "type": "function"
    },
    {
      "inputs": [
        {
          "name": "_token",
          "type": "address"
        },
        {
          "name": "_tokenOwner",
          "type": "address"
        },
        {
          "name": "_wallet",
          "type": "address"
        },
        {
          "name": "_saleAmount",
          "type": "uint256"
        },
        {
          "name": "_priceFactor",
          "type": "uint256"
        },
        {
          "name": "_maxValue",
          "type": "uint256"
        },
        {
          "name": "_minValue",
          "type": "uint256"
        }
      ],
      "payable": false,
      "stateMutability": "nonpayable",
      "type": "constructor"
    },
    {
      "payable": true,
      "stateMutability": "payable",
      "type": "fallback"
    },
    {
      "anonymous": false,
      "inputs": [
        {
          "indexed": false,
          "name": "sender",
          "type": "address"
        },
        {
          "indexed": false,
          "name": "amount",
          "type": "uint256"
        }
      ],
      "name": "FundTransfer",
      "type": "event"
    },
    {
      "constant": false,
      "inputs": [
        {
          "name": "_token",
          "type": "address"
        }
      ],
      "name": "setupToken",
      "outputs": [],
      "payable": false,
      "stateMutability": "nonpayable",
      "type": "function"
    },
    {
      "constant": false,
      "inputs": [],
      "name": "startSale",
      "outputs": [],
      "payable": false,
      "stateMutability": "nonpayable",
      "type": "function"
    },
    {
      "constant": false,
      "inputs": [
        {
          "name": "_saleAmount",
          "type": "uint256"
        },
        {
          "name": "_priceFactor",
          "type": "uint256"
        },
        {
          "name": "_maxValue",
          "type": "uint256"
        },
        {
          "name": "_minValue",
          "type": "uint256"
        },
        {
          "name": "_maxGasPrice",
          "type": "uint256"
        }
      ],
      "name": "changeSettings",
      "outputs": [],
      "payable": false,
      "stateMutability": "nonpayable",
      "type": "function"
    },
    {
      "constant": false,
      "inputs": [
        {
          "name": "_maxGasPrice",
          "type": "uint256"
        }
      ],
      "name": "setMaxGasPrice",
      "outputs": [],
      "payable": false,
      "stateMutability": "nonpayable",
      "type": "function"
    },
    {
      "constant": true,
      "inputs": [
        {
          "name": "src",
          "type": "address"
        }
      ],
      "name": "balanceOf",
      "outputs": [
        {
          "name": "",
          "type": "uint256"
        }
      ],
      "payable": false,
      "stateMutability": "view",
      "type": "function"
    },
    {
      "constant": true,
      "inputs": [
        {
          "name": "src",
          "type": "address"
        }
      ],
      "name": "amountOf",
      "outputs": [
        {
          "name": "",
          "type": "uint256"
        }
      ],
      "payable": false,
      "stateMutability": "view",
      "type": "function"
    },
    {
      "constant": true,
      "inputs": [
        {
          "name": "src",
          "type": "bytes"
        }
      ],
      "name": "saleData",
      "outputs": [
        {
          "name": "",
          "type": "address"
        }
      ],
      "payable": false,
      "stateMutability": "view",
      "type": "function"
    },
    {
      "constant": true,
      "inputs": [],
      "name": "isSaleOpen",
      "outputs": [
        {
          "name": "",
          "type": "bool"
        }
      ],
      "payable": false,
      "stateMutability": "view",
      "type": "function"
    },
    {
      "constant": false,
      "inputs": [],
      "name": "halt",
      "outputs": [],
      "payable": false,
      "stateMutability": "nonpayable",
      "type": "function"
    }
  ],
  "bytecode": "0x6060604052341561000f57600080fd5b60405160e0806118b78339810160405280805190602001909190805190602001909190805190602001909190805190602001909190805190602001909190805190602001909190805190602001909190505060008673ffffffffffffffffffffffffffffffffffffffff161415801561009f575060008573ffffffffffffffffffffffffffffffffffffffff1614155b80156100ac575060008414155b80156100b9575060008314155b15156100c457600080fd5b85600360006101000a81548173ffffffffffffffffffffffffffffffffffffffff021916908373ffffffffffffffffffffffffffffffffffffffff16021790555033600260006101000a81548173ffffffffffffffffffffffffffffffffffffffff021916908373ffffffffffffffffffffffffffffffffffffffff16021790555084600160006101000a81548173ffffffffffffffffffffffffffffffffffffffff021916908373ffffffffffffffffffffffffffffffffffffffff16021790555083600481905550826005819055508160098190555080600a8190555060008060146101000a81548160ff021916908360038111156101c157fe5b021790555060008773ffffffffffffffffffffffffffffffffffffffff1614151561024b57866000806101000a81548173ffffffffffffffffffffffffffffffffffffffff021916908373ffffffffffffffffffffffffffffffffffffffff1602179055506001600060146101000a81548160ff0219169083600381111561024557fe5b02179055505b6000600b819055505050505050505061164e806102696000396000f300606060405260043610610128576000357c0100000000000000000000000000000000000000000000000000000000900463ffffffff16806301608f5f1461088e57806316948e9b146108db5780631a081330146109225780633197cbb61461094f5780633de39c111461097857806348cd4cb1146109a1578063521eb273146109ca57806355cbf9eb14610a1f5780635ed7ca5b14610b3a57806370a0823114610b4f57806382ad5ecf14610b9c5780638aae995a14610bf15780638da5cb5b14610c1a57806394a5c2e414610c6f578063963e63c714610c98578063a04290f914610cc1578063a3c2c46214610d5e578063a3e6761014610d87578063b3c4a36b14610ddc578063b66a0e5d14610e15578063d2fa635e14610e2a578063dfb2866d14610e4d575b60008060008060008060095414151561014f576001600954013410151561014e57600080fd5b5b6000600a5414151561016f576001600a54033411151561016e57600080fd5b5b3373ffffffffffffffffffffffffffffffffffffffff16600160009054906101000a900473ffffffffffffffffffffffffffffffffffffffff1673ffffffffffffffffffffffffffffffffffffffff16141515156101cc57600080fd5b600080369050141515156101df57600080fd5b60001515600d60003660405180838380828437820191505092505050908152602001604051809103902060000160009054906101000a900460ff16151514151561022857600080fd5b6000600c60003373ffffffffffffffffffffffffffffffffffffffff1673ffffffffffffffffffffffffffffffffffffffff1681526020019081526020016000206001015414151561027957600080fd5b6000600b54141515610299576001600b54013a10151561029857600080fd5b5b60028060038111156102a757fe5b600060149054906101000a900460ff1660038111156102c257fe5b1415156102ce57600080fd5b3495506102e8600554600454610e7690919063ffffffff16565b945084861115610348576103058587610eb790919063ffffffff16565b93503373ffffffffffffffffffffffffffffffffffffffff166108fc859081150290604051600060405180830381858888f19350505050151561034457fe5b8495505b61035d86600754610ed090919063ffffffff16565b60078190555061037860055487610eee90919063ffffffff16565b925061038f83600454610eb790919063ffffffff16565b6004819055506000809054906101000a900473ffffffffffffffffffffffffffffffffffffffff1673ffffffffffffffffffffffffffffffffffffffff166323b872dd600360009054906101000a900473ffffffffffffffffffffffffffffffffffffffff1633866000604051602001526040518463ffffffff167c0100000000000000000000000000000000000000000000000000000000028152600401808473ffffffffffffffffffffffffffffffffffffffff1673ffffffffffffffffffffffffffffffffffffffff1681526020018373ffffffffffffffffffffffffffffffffffffffff1673ffffffffffffffffffffffffffffffffffffffff1681526020018281526020019350505050602060405180830381600087803b15156104b757600080fd5b6102c65a03f115156104c857600080fd5b50505060405180519050507f97c35397cb6acebd9df368c206404479fc4c80dd6034d1b28943aaf5826318703384604051808373ffffffffffffffffffffffffffffffffffffffff1673ffffffffffffffffffffffffffffffffffffffff1681526020018281526020019250505060405180910390a1600c60003373ffffffffffffffffffffffffffffffffffffffff1673ffffffffffffffffffffffffffffffffffffffff168152602001908152602001600020915060018260000160006101000a81548160ff021916908315150217905550338260000160016101000a81548173ffffffffffffffffffffffffffffffffffffffff021916908373ffffffffffffffffffffffffffffffffffffffff1602179055506000368360030191906105f39291906114f6565b5085826001018190555082826002018190555081600d6000366040518083838082843782019150509250505090815260200160405180910390206000820160009054906101000a900460ff168160000160006101000a81548160ff0219169083151502179055506000820160019054906101000a900473ffffffffffffffffffffffffffffffffffffffff168160000160016101000a81548173ffffffffffffffffffffffffffffffffffffffff021916908373ffffffffffffffffffffffffffffffffffffffff1602179055506001820154816001015560028201548160020155600382018160030190805460018160011615610100020316600290046106fc929190611576565b5090505081600c60003373ffffffffffffffffffffffffffffffffffffffff1673ffffffffffffffffffffffffffffffffffffffff1681526020019081526020016000206000820160009054906101000a900460ff168160000160006101000a81548160ff0219169083151502179055506000820160019054906101000a900473ffffffffffffffffffffffffffffffffffffffff168160000160016101000a81548173ffffffffffffffffffffffffffffffffffffffff021916908373ffffffffffffffffffffffffffffffffffffffff16021790555060018201548160010155600282015481600201556003820181600301908054600181600116156101000203166002900461080f929190611576565b50905050600160009054906101000a900473ffffffffffffffffffffffffffffffffffffffff1673ffffffffffffffffffffffffffffffffffffffff166108fc879081150290604051600060405180830381858888f19350505050151561087557600080fd5b8486141561088657610885610f21565b5b505050505050005b341561089957600080fd5b6108c5600480803573ffffffffffffffffffffffffffffffffffffffff16906020019091905050610f56565b6040518082815260200191505060405180910390f35b34156108e657600080fd5b6109206004808035906020019091908035906020019091908035906020019091908035906020019091908035906020019091905050610fa2565b005b341561092d57600080fd5b610935611045565b604051808215151515815260200191505060405180910390f35b341561095a57600080fd5b610962611075565b6040518082815260200191505060405180910390f35b341561098357600080fd5b61098b61107b565b6040518082815260200191505060405180910390f35b34156109ac57600080fd5b6109b4611081565b6040518082815260200191505060405180910390f35b34156109d557600080fd5b6109dd611087565b604051808273ffffffffffffffffffffffffffffffffffffffff1673ffffffffffffffffffffffffffffffffffffffff16815260200191505060405180910390f35b3415610a2a57600080fd5b610a56600480803573ffffffffffffffffffffffffffffffffffffffff169060200190919050506110ad565b60405180861515151581526020018573ffffffffffffffffffffffffffffffffffffffff1673ffffffffffffffffffffffffffffffffffffffff16815260200184815260200183815260200180602001828103825283818154600181600116156101000203166002900481526020019150805460018160011615610100020316600290048015610b275780601f10610afc57610100808354040283529160200191610b27565b820191906000526020600020905b815481529060010190602001808311610b0a57829003601f168201915b5050965050505050505060405180910390f35b3415610b4557600080fd5b610b4d61110f565b005b3415610b5a57600080fd5b610b86600480803573ffffffffffffffffffffffffffffffffffffffff16906020019091905050611175565b6040518082815260200191505060405180910390f35b3415610ba757600080fd5b610baf6111c1565b604051808273ffffffffffffffffffffffffffffffffffffffff1673ffffffffffffffffffffffffffffffffffffffff16815260200191505060405180910390f35b3415610bfc57600080fd5b610c046111e6565b6040518082815260200191505060405180910390f35b3415610c2557600080fd5b610c2d6111ec565b604051808273ffffffffffffffffffffffffffffffffffffffff1673ffffffffffffffffffffffffffffffffffffffff16815260200191505060405180910390f35b3415610c7a57600080fd5b610c82611212565b6040518082815260200191505060405180910390f35b3415610ca357600080fd5b610cab611218565b6040518082815260200191505060405180910390f35b3415610ccc57600080fd5b610d1c600480803590602001908201803590602001908080601f0160208091040260200160405190810160405280939291908181526020018383808284378201915050505050509190505061121e565b604051808273ffffffffffffffffffffffffffffffffffffffff1673ffffffffffffffffffffffffffffffffffffffff16815260200191505060405180910390f35b3415610d6957600080fd5b610d716112b6565b6040518082815260200191505060405180910390f35b3415610d9257600080fd5b610d9a6112bc565b604051808273ffffffffffffffffffffffffffffffffffffffff1673ffffffffffffffffffffffffffffffffffffffff16815260200191505060405180910390f35b3415610de757600080fd5b610e13600480803573ffffffffffffffffffffffffffffffffffffffff169060200190919050506112e2565b005b3415610e2057600080fd5b610e286113cb565b005b3415610e3557600080fd5b610e4b600480803590602001909190505061148a565b005b3415610e5857600080fd5b610e606114f0565b6040518082815260200191505060405180910390f35b600080600083111515610e8557fe5b8284811515610e9057fe5b0490508284811515610e9e57fe5b068184020184141515610ead57fe5b8091505092915050565b6000828211151515610ec557fe5b818303905092915050565b6000808284019050838110151515610ee457fe5b8091505092915050565b60008082840290506000841480610f0f5750828482811515610f0c57fe5b04145b1515610f1757fe5b8091505092915050565b6003600060146101000a81548160ff02191690836003811115610f4057fe5b0217905550600060048190555042600881905550565b6000600c60008373ffffffffffffffffffffffffffffffffffffffff1673ffffffffffffffffffffffffffffffffffffffff168152602001908152602001600020600101549050919050565b600260009054906101000a900473ffffffffffffffffffffffffffffffffffffffff1673ffffffffffffffffffffffffffffffffffffffff163373ffffffffffffffffffffffffffffffffffffffff16141515610ffe57600080fd5b60008514158015611010575060008414155b151561101b57600080fd5b84600481905550836005819055508260098190555081600a8190555080600b819055505050505050565b60006002600381111561105457fe5b600060149054906101000a900460ff16600381111561106f57fe5b14905090565b60085481565b600b5481565b60065481565b600160009054906101000a900473ffffffffffffffffffffffffffffffffffffffff1681565b600c6020528060005260406000206000915090508060000160009054906101000a900460ff16908060000160019054906101000a900473ffffffffffffffffffffffffffffffffffffffff169080600101549080600201549080600301905085565b600260009054906101000a900473ffffffffffffffffffffffffffffffffffffffff1673ffffffffffffffffffffffffffffffffffffffff163373ffffffffffffffffffffffffffffffffffffffff1614151561116b57600080fd5b611173610f21565b565b6000600c60008373ffffffffffffffffffffffffffffffffffffffff1673ffffffffffffffffffffffffffffffffffffffff168152602001908152602001600020600201549050919050565b6000809054906101000a900473ffffffffffffffffffffffffffffffffffffffff1681565b60045481565b600260009054906101000a900473ffffffffffffffffffffffffffffffffffffffff1681565b60095481565b600a5481565b6000600d826040518082805190602001908083835b6020831015156112585780518252602082019150602081019050602083039250611233565b6001836020036101000a038019825116818451168082178552505050505050905001915050908152602001604051809103902060000160019054906101000a900473ffffffffffffffffffffffffffffffffffffffff169050919050565b60075481565b600360009054906101000a900473ffffffffffffffffffffffffffffffffffffffff1681565b600260009054906101000a900473ffffffffffffffffffffffffffffffffffffffff1673ffffffffffffffffffffffffffffffffffffffff163373ffffffffffffffffffffffffffffffffffffffff1614151561133e57600080fd5b60008173ffffffffffffffffffffffffffffffffffffffff161415151561136457600080fd5b806000806101000a81548173ffffffffffffffffffffffffffffffffffffffff021916908373ffffffffffffffffffffffffffffffffffffffff1602179055506001600060146101000a81548160ff021916908360038111156113c357fe5b021790555050565b600260009054906101000a900473ffffffffffffffffffffffffffffffffffffffff1673ffffffffffffffffffffffffffffffffffffffff163373ffffffffffffffffffffffffffffffffffffffff1614151561142757600080fd5b600180600381111561143557fe5b600060149054906101000a900460ff16600381111561145057fe5b14151561145c57600080fd5b6002600060146101000a81548160ff0219169083600381111561147b57fe5b02179055504360068190555050565b600260009054906101000a900473ffffffffffffffffffffffffffffffffffffffff1673ffffffffffffffffffffffffffffffffffffffff163373ffffffffffffffffffffffffffffffffffffffff161415156114e657600080fd5b80600b8190555050565b60055481565b828054600181600116156101000203166002900490600052602060002090601f016020900481019282601f1061153757803560ff1916838001178555611565565b82800160010185558215611565579182015b82811115611564578235825591602001919060010190611549565b5b50905061157291906115fd565b5090565b828054600181600116156101000203166002900490600052602060002090601f016020900481019282601f106115af57805485556115ec565b828001600101855582156115ec57600052602060002091601f016020900482015b828111156115eb5782548255916001019190600101906115d0565b5b5090506115f991906115fd565b5090565b61161f91905b8082111561161b576000816000905550600101611603565b5090565b905600a165627a7a723058206b278b5648e6d24aabe743bf66ff3439d2c531e1d3fd9718e99a696b39b991b10029",
  "source": "pragma solidity ^0.4.11;\nimport \"../token/Erc20.sol\";\nimport \"../util/SafeMath.sol\";\n/**\n    YGGDRASH CROWD SALE SmartContract\n    @author Peter Ryu - <odin@yggdrash.io>\n*/\ncontract YggdrashCrowdSale {\n    using SafeMath for uint;\n    ERC20 public yeedToken;\n    Stages stage;\n    address public wallet;\n    address public owner;\n    address public tokenOwner;\n    uint public saleAmount;    // sale Token amount\n    uint public priceFactor; // ratio\n    uint public startBlock;\n    uint public totalReceived;\n    uint public endTime;\n\n    uint public maxValue; // max ETH\n    uint public minValue;\n\n    uint public maxGasPrice; // Max gasPrice\n\n    // collect log\n    event FundTransfer (address sender, uint amount);\n\n    struct ContributeAddress {\n        bool exists; // set to true\n        address account; // sending account\n        uint amount; // sending amount\n        uint balance; // token value\n        bytes data; // sending data\n    }\n\n    mapping(address => ContributeAddress) public _saleValue;\n    mapping(bytes => ContributeAddress) _saleData;\n\n    /*\n        Check is owner address\n    */\n    modifier isOwner() {\n        // Only owner is allowed to proceed\n        require (msg.sender == owner);\n        _;\n    }\n\n    /**\n        Check Valid Payload\n    */\n    modifier isValidPayload() {\n        // check Max\n        if(maxValue != 0){\n            require(msg.value < maxValue + 1);\n        }\n        // Check Min\n        if(minValue != 0){\n            require(msg.value > minValue - 1);\n        }\n        require(wallet != msg.sender);\n        // check data value\n        require(msg.data.length != 0);\n        _;\n\n    }\n\n    /**\n        NO MORE GAS WAR!!!\n    */\n    modifier checkGasPrice() {\n        if(maxGasPrice != 0){\n            require(tx.gasprice < maxGasPrice + 1);\n        }\n        _;\n    }\n\n    /*\n        Check exists sale list\n    */\n    modifier isExists() {\n        require(_saleData[msg.data].exists == false);\n        require(_saleValue[msg.sender].amount == 0);\n        _;\n    }\n\n    /*\n     *  Modifiers Stage\n     */\n    modifier atStage(Stages _stage) {\n        require(stage == _stage);\n        _;\n    }\n\n\n    /*\n     *  Enums Stage Status\n     */\n    enum Stages {\n    SaleDeployed,\n    SaleSetUp,\n    SaleStarted,\n    SaleEnded\n    }\n\n\n    /// init\n    /// @param _token token address\n    /// @param _tokenOwner token owner wallet address\n    /// @param _wallet sale ETH wallet\n    /// @param _saleAmount sale token total value\n    /// @param _priceFactor token and ETH ratio\n    /// @param _maxValue maximum ETH balance\n    /// @param _minValue minimum ETH balance\n\n    function YggdrashCrowdSale(address _token, address _tokenOwner, address _wallet, uint _saleAmount, uint _priceFactor, uint _maxValue, uint _minValue)\n    public\n    {\n        require (_tokenOwner != 0 && _wallet != 0 && _saleAmount != 0 && _priceFactor != 0);\n        tokenOwner = _tokenOwner;\n        owner = msg.sender;\n        wallet = _wallet;\n        saleAmount = _saleAmount;\n        priceFactor = _priceFactor;\n        maxValue = _maxValue;\n        minValue = _minValue;\n        stage = Stages.SaleDeployed;\n\n        if(_token != 0){ // setup token\n            yeedToken = ERC20(_token);\n            stage = Stages.SaleSetUp;\n        }\n        // Max Gas Price is unlimited\n        maxGasPrice = 0;\n    }\n\n    // setupToken\n    function setupToken(address _token)\n    public\n    isOwner\n    {\n        require(_token != 0);\n        yeedToken = ERC20(_token);\n        stage = Stages.SaleSetUp;\n    }\n\n    /// @dev Start Sale\n    function startSale()\n    public\n    isOwner\n    atStage(Stages.SaleSetUp)\n    {\n        stage = Stages.SaleStarted;\n        startBlock = block.number;\n    }\n\n\n    /**\n        Contributer send to ETH\n        Payload Check\n        Exist Check\n        GasPrice Check\n        Stage Check\n    */\n    function()\n    public\n    isValidPayload\n    isExists\n    checkGasPrice\n    atStage(Stages.SaleStarted)\n    payable\n    {\n        uint amount = msg.value;\n        uint maxAmount = saleAmount.div(priceFactor);\n        // refund\n        if (amount > maxAmount){\n            uint refund = amount.sub(maxAmount);\n            assert(msg.sender.send(refund));\n            amount = maxAmount;\n        }\n        totalReceived = totalReceived.add(amount);\n        // calculate token\n        uint token = amount.mul(priceFactor);\n        saleAmount = saleAmount.sub(token);\n\n        // give token to sender\n        yeedToken.transferFrom(tokenOwner, msg.sender, token);\n        FundTransfer(msg.sender, token);\n\n        // Set Contribute Account\n        ContributeAddress storage crowdData = _saleValue[msg.sender];\n        crowdData.exists = true;\n        crowdData.account = msg.sender;\n        crowdData.data = msg.data;\n        crowdData.amount = amount;\n        crowdData.balance = token;\n        // add SaleData\n        _saleData[msg.data] = crowdData;\n        _saleValue[msg.sender] = crowdData;\n        // send to wallet\n        wallet.transfer(amount);\n\n        // token sold out\n        if (amount == maxAmount)\n            finalizeSale();\n    }\n\n    /// @dev Changes auction saleAmount and start price factor before auction is started.\n    /// @param _saleAmount Updated auction saleAmount.\n    /// @param _priceFactor Updated start price factor.\n    /// @param _maxValue Maximum balance of ETH\n    /// @param _minValue Minimum balance of ETH\n    function changeSettings(uint _saleAmount, uint _priceFactor, uint _maxValue, uint _minValue, uint _maxGasPrice)\n    public\n    isOwner\n    {\n        require(_saleAmount != 0 && _priceFactor != 0);\n        saleAmount = _saleAmount;\n        priceFactor = _priceFactor;\n        maxValue = _maxValue;\n        minValue = _minValue;\n        maxGasPrice = _maxGasPrice;\n    }\n    /**\n        Set Max Gas Price by Admin\n    */\n    function setMaxGasPrice(uint _maxGasPrice)\n    public\n    isOwner\n    {\n        maxGasPrice = _maxGasPrice;\n    }\n\n\n    // token balance\n    // @param src sender wallet address\n    function balanceOf(address src) public constant returns (uint256)\n    {\n        return _saleValue[src].balance;\n    }\n\n    // amount ETH value\n    // @param src sender wallet address\n    function amountOf(address src) public constant returns(uint256)\n    {\n        return _saleValue[src].amount;\n    }\n\n    // sale data\n    // @param src Yggdrash uuid\n    function saleData(bytes src) public constant returns(address)\n    {\n        return _saleData[src].account;\n    }\n\n    // Check sale is open\n    function isSaleOpen() public constant returns (bool)\n    {\n        return stage == Stages.SaleStarted;\n    }\n\n    // CrowdSale halt\n    function halt()\n    public\n    isOwner\n    {\n        finalizeSale();\n    }\n\n    // END of this sale\n    function finalizeSale()\n    private\n    {\n        stage = Stages.SaleEnded;\n        // remain token send to owner\n        saleAmount = 0;\n        endTime = now;\n    }\n}\n",
  "sourcePath": "/Users/pop/Documents/Project/r2v/yggdrash/Yggdrash-token/contracts/ico/YggdrashCrowdSale.sol",
  "compiler": {
    "name": "solc",
    "version": "0.4.19+commit.c4cbbb05.Emscripten.clang"
  },
  "schemaVersion": "2.0.0",
  "updatedAt": "2018-03-07T11:58:42.335Z"
}